:020000040800F2
:1000000028050020C900000801210008EB1D000898
:1000100000000000000000000000000000000000E0
:1000200000000000000000000000000005210008A2
:100030000000000000000000032100080721000864
:10004000DB00000800000000DB000008DB00000807
:10005000DB000008DB000008DB000008DB00000814
:1000600000000000DB000008DB000008DB000008E7
:100070006D070008DB000008DB000008000000003E
:10008000DB0000088521000800000000DB000008FC
:10009000DB000008DB000008DB000008DB000008D4
:1000A000DB000008DB000008DB00000891270008E7
:1000B000DB0000080348854600F046FB0048004787
:1000C000B928000828050020044880470448004754
:1000D000FEE7FEE7FEE7FEE7FEE7FEE78321000816
:1000E000B500000830B50B4601460020202201244F
:1000F00009E00D46D5409D4205D31D469540491B5C
:100100002546954040191546521E002DF1DC30BDA4
:10011000F0B51FB40646002082B005464024019188
:1001200000901BE0019922460F46304600F020F86F
:10013000049A059B801A994110D31046194622460D
:1001400000F080FA361A8F410197224601200021E3
:10015000009F00F077FA38184D4100902046641E49
:100160000028DFDC019B00982946324607B0F0BD2D
:1001700010B5202A04DB0846203AD040002110BDEB
:100180000B46D340D0402024A21A91400843194680
:1001900010BD03460B439B0703D009E008C9121F9B
:1001A00008C0042AFAD203E00B780370401C491CF3
:1001B000521EF9D27047D2B201E00270401C491EB3
:1001C000FBD270470022F6E710B513460A460446F4
:1001D0001946FFF7F0FF204610BD0000F0B50746B6
:1001E0000846584087B0C00F049048000E4659009A
:1001F00040084908BC1A884105D2384631461E4697
:1002000017460B4602465800400810434CD0300DAC
:10021000039040055900400D490D0590401A029089
:10022000402872DA18030121000B090508430190E8
:1002300004980092002805D001995242002088417C
:1002400000920190029840210A1A0199009800F04A
:10025000F9F905460C466B4607CB00F003FAC019C6
:100260007141039A0E0D0023D71756401A467A4063
:10027000164344D0049A002A2DD0029A012A039AE8
:1002800015DC1205C01A914101263605001C71418A
:10029000D20F059ED2070093019202962A4623466A
:1002A00000F000FA07B0F0BD38463146FAE716050F
:1002B000224A0F46B218C01AB74101210905001C95
:1002C0004F4100187F41114618187941E20F104341
:1002D0006D19644113E0E2076D0815436408C20715
:1002E0001443039A01261205C01A91413605001CD9
:1002F0007141CE07400830434908C01851412A4691
:10030000234600F0C2F9CDE7FFE704980122400040
:10031000C117121A00238B4104983146C417381AAA
:10032000A141EEE730B40124E407634030BC55E757
:1003300030B40124E407614030BC4FE70000E0FF27
:10034000F0B51FB488B00B9909980024484009996A
:10035000C00F490049080991C0070B990090490056
:1003600049080B9109990898A64608431CD00B9997
:100370000A98084318D0099801244000420D48000B
:10038000410D099824050003000B204309900B98A8
:100390000003000B20430B9050181C49401800220A
:1003A00001901446104605E0002001460DB0F0BD56
:1003B000032801DA034600E003239C46C11A0AAE73
:1003C0000AE05F0008ADED5B4F00F75B7D4300275F
:1003D000AA187C41491C5B1E6145F2DD410004AB5B
:1003E0005A522104120C0A43240C401C0828DFDB5B
:1003F000019802900099704601910090059B049A23
:100400000799069800F04EF9D0E700000DFCFFFFB9
:10041000F0B50C465C4085B0E40FE40703944C0053
:100420000026640859009446490802460296224371
:1004300021D062460A431ED06200570D4A000E03C7
:100440002303550D012402462C492405781B1B0B60
:10045000360B401823432643614600901C46501A31
:10046000B44103D30098401C009002E09218009819
:100470005B41002803DA0020014605B0F0BD0020F2
:10048000012109050746864611E064461D46141BF6
:10049000B54106D36546521BB341744607430C432E
:1004A000A646CD0740084908284392185B410546F7
:1004B0000D43EAD11046184313D060461946504008
:1004C0007140084306D06046101AB34106D201229B
:1004D000002306E000220123DB0702E00122D243D1
:1004E0005310009874460105381C6141029C039D1D
:1004F0000019694100F0C9F8BFE70000FD030000E2
:1005000070B54B005B0803430BD04B005C0D00261D
:1005100033466542B341D417AD1AA34102DB002034
:10052000014670BD12053018514170BD0EB5C2179D
:10053000C10F5040CA0740180021054B0293019299
:1005400000910A460B4600F0ADF803B000BD000074
:10055000330400000EB505490291002100910A46BE
:100560000B46019100F09EF803B000BD330400007B
:1005700070B5CD0F4A0009030123090B1B05194370
:100580000B4BED070024520D9A4201DA002070BD9A
:10059000074B34339A4203DC9A1AFFF7E9FD02E075
:1005A0000449511888402C43F1D0404270BD0000EE
:1005B000FF030000CDFBFFFF4A0009030123090BE5
:1005C0001B051943094B10B5520D9A4201DA002060
:1005D00010BD064B34339A4203DC9A1AFFF7C8FD6C
:1005E00010BD03495118884010BD0000FF030000F2
:1005F000CDFBFFFF10B5002904DB0124E4074042D6
:100600008C412146002B04DB1C460123DB075242B0
:10061000A3418B4200D1824210BD000010B50029D9
:1006200004DB0124E40740428C412146002B04DB1B
:100630001C460123DB075242A341994200D190425C
:1006400010BD000010B5202A04DB0146203A91407D
:10065000002010BD914020239C1A0346E34019431B
:10066000904010BD10B5202A06DBCB170846203A73
:100670001041C1170B4306E00B461341D040202424
:10068000A21A91400843194610BD10B5002B08DA94
:100690000024401C614192185B411A4301D140087B
:1006A000400010BDF0B51FB482B005460C0003D069
:1006B000084602F075F802E002F072F820300246B7
:1006C000009021462846FFF7BDFF049B059A04468B
:1006D0000F4618431143084314D0184610431BD04B
:1006E000009840210A1A18460599FFF741FD054672
:1006F0000E46009A05990498FFF7A4FF084305D019
:10070000012004E02046394607B0F0BD0020C117A3
:1007100005430E432C43374300990E986305401A56
:100720007905E40A00220C43FD0A0A3002D50020B4
:100730000146E9E70105101969410C9C0D9D00195E
:100740006941FFF7A2FFDFE7064C0125064E05E0F1
:10075000E36807CC2B430C3C98471034B442F7D3E2
:10076000FFF7ACFC182C0008382C000810B5024824
:1007700000F093F910BD00001C00002070B5044685
:1007800000688168490724D5816810264907002937
:1007900005DA8168890702D481683143816000F0FD
:1007A000ABFC054611E000F0A7FC401B02280CD969
:1007B00020688068400708D5A06B3043A063E06BD9
:1007C00001210843E063084670BD20688068400747
:1007D000E9D4002070BDF8B5044600688168890737
:1007E000890F01292CD10168C90702D1C168090408
:1007F00026D581680522114010250126012913D133
:10080000816802221143816021680320086000F0A2
:1008100073FC074610E000F06FFCC01B02280BD9E8
:1008200020688068C00707D0A06B2843A063E06BF6
:100830003043E0630120F8BD20688068C007EAD13A
:100840000020F8BDF8B504460020009020688168BB
:100850008907890F012905D10168C90731D1C1680C
:1008600009042ED48168184A102611400125002958
:100870001AD1816829438160154814490068FFF73F
:1008800031FC00E0401E00900028FBD100F034FC59
:10089000074611E000F030FCC01B02280CD920688C
:1008A0000068C043C00707D0A06B3043A063E06B73
:1008B0002843E0630120F8BD20680068C043C007FA
:1008C000E8D10020F8BD00001700008040420F0072
:1008D0001800002072B6FEE7FEB501200603009066
:1008E000000702900025019669461E4800F048F86E
:1008F000002801D0FFF7EEFF1A4800F08DFA0A2118
:10090000184800F025FA002806D1164800F0B2FA7F
:10091000144800F0BFF885B22846FFF71BFE0F46CB
:100920000446114A114BFFF765FE01D20020FEBDBF
:10093000B54201D96420FEBD204639460C4A0D4B14
:10094000FFF7FEFC00220C4BFFF7FAFC0B22D24310
:10095000FFF7D6FD0022094BFFF7E4FCFFF708FE86
:1009600080B2FEBD1C00002065934D36D9648340E3
:100970006666666666660A400000394000002940E7
:10098000F8B50025044620340095227D012A39D08F
:100990000122227503689E68760767D4384F4E6837
:1009A000BE424DD09E6A0F78BA4016439E62012324
:1009B000C26A1B079A421FD0012A1DD0022A1BD0EF
:1009C000032A19D0042A17D0052A15D0062A13D0D5
:1009D000072A11D002688B6856697607760FB342F2
:1009E0000AD05369DB08DB005361006842690B7A67
:1009F0005B075B0F1A4342610A68102A04D0112A70
:100A000002D038E00220F8BD1E488368102A07D0C3
:100A100001229205134383600868102803D02AE05E
:100A20000122D205F6E7194817490068FFF75AFB7B
:100A30000A21484300E0401E00900028FBD11AE044
:100A4000986A0E78B240904398620968102901D0E4
:100A5000112910D10B488268102904D00121890581
:100A60008A43826007E00121C905F9E7816B2022F2
:100A7000114381630125002020752846F8BD000040
:100A8000011000000027014040420F001800002024
:100A9000704770470068006C704770B50446006886
:100AA0000168490702D54168490705D4016809076B
:100AB00030D5416809072DD5A16BC90604D4A16BB7
:100AC000012252021143A163C1680C250905890F57
:100AD00000291AD1A17E002917D10168090714D570
:100AE00081684A070121002A08DB4268AA43426064
:100AF000A06B0A0290430843A06306E0A06B20228B
:100B00001043A063E06B0843E0632046FFF7C0FF9B
:100B1000206805602068016809060DD54068000658
:100B20000AD5A06B012109040843A063204600F008
:100B3000D9F821688020086020680168C90613D5AB
:100B40004168C90610D5A16A1025012902D0C168E3
:100B5000C90707D0E16B02221143E163056020461B
:100B6000FFF797FF2068056070BD0000F8B500260C
:100B70000446002805D0A06B25462035002802D069
:100B800007E00120F8BD0020E0632875204600F052
:100B9000ABF8A06B1022C006002870DB20688168CB
:100BA00049076CD4A16B1301994302231943A16334
:100BB00081688907890F012905D10168C9070FD10B
:100BC000C16809040CD4C16818239943A368194368
:100BD000C16020680169636889008908194301615F
:100BE0002068C1683D4B1940C160207E617E800352
:100BF000C9030843A17E4B031843A36A012B02D00B
:100C000001231B0300E000231843E3681843236912
:100C1000022B09D0002318432B79E57E5B00184393
:100C20000123012D02D00AE00423F4E7002927D094
:100C3000A16B20252943A163E16B1943E163E169BD
:100C40000D46FF3DC23D02D0256A29430843216875
:100C5000CD680543CD600125E16A2D07A94213D077
:100C6000012911D002290FD003290DD004290BD05E
:100C7000052909D0062907D0072905D010E028E06A
:100C8000012109040843DAE721684D69ED08ED0008
:100C90004D6121684D69A78D7F077F0F3D434D61F1
:100CA0002168C9680E4D2940814207D10020E063C8
:100CB000A06B80088000401CA06308E0A06B0221AC
:100CC00088431043A063E06B1843E063012630467D
:100CD000F8BDA06B1043A063F8E700001902FEFF07
:100CE000E7FF3F837047000010B586B0044614212B
:100CF0006846FFF767FA14492068884221D11348F3
:100D0000826941150A43826182690A4005924269FB
:100D100009020A43426140690840059002200090A0
:100D2000032001900020029009206946C00600F0CF
:100D300005F9002211460C2000F03EFA0C2000F0CC
:100D40002FFA06B010BD0000002401400010024040
:100D5000F8B504464069254620350E4608280BD0D4
:100D60002068C068C00709D0A06B20210843A06399
:100D7000002028750120F8BD082700E00C2700F0AE
:100D8000BBF9009015E0701C13D0002E05D000F0C8
:100D9000B3F90099401AB0420BD920680068384274
:100DA00007D1A06B04210843A0630020287503200D
:100DB000F8BD206800683842E5D0A06B01214902E7
:100DC0000843A0632068C16809058A0F0C21002A26
:100DD0001AD1A27E002A17D10268120714D58268A0
:100DE00053070122002B08DB43688B434360A06B51
:100DF000130298431043A06306E0A06B202318431E
:100E0000A063E06B1043E063207E002801D12068DE
:100E100001600020F8BD000070B504462168002084
:100E20008968490721D425462035297D01291CD010
:100E300001212975617E012904D02046FFF702FDBA
:100E4000002811D1A16B0A4A1140FF22013211433F
:100E5000A1630021E163297522681C2111602168CA
:100E60008A6804231A438A6070BD022070BD0000A6
:100E7000FEF1FFFF70B5054604462035287D0128A8
:100E800007D001262E752046FFF778FC002802D0F7
:100E90000CE0022070BD2046FFF79DFC002805D124
:100EA000A16BFF22013291433143A16300212975D7
:100EB00070BD30B5014620314B780022022B04D0A2
:100EC000042383630A70012030BD03681C680E256B
:100ED000AC431C6003681C68640864001C60012348
:100EE000056C1C46C06BAC4044604B700A7000201F
:100EF00030BD70B50024014620314A78022A03D063
:100F000004218163012416E0026813680E25AB43B7
:100F10001360026813685B085B0013600122056CB4
:100F20001346AB40C56B6B604A7000220A70416B80
:100F3000002900D08847204670BD0000F8B5002386
:100F400003240125BAE02E469E40B44632407CD0B0
:100F50000E79B607B60F012E01D0022E17D1866882
:100F60002746B6465E00B74000967646BE43B64674
:100F7000CF68009EB740764637438760466867462D
:100F8000BE430F79FF06FF0F9F40374347600E793E
:100F9000F643B6070ED0C6682746B4465E00B6468E
:100FA000B7406646BE43B4468F687646B74066464D
:100FB0003743C7600E79B607B60F022E14D1DE088C
:100FC000B60036180096366A5F07B446FE0E0F2745
:100FD000B646B7406646BE43B4460F697646B7404C
:100FE00066463743009E376206682746B4465E0071
:100FF000B646B7406646BE430F79B446BF07BF0F3B
:101000007646B7406646374307604E68B603B60F6C
:1010100053D02D4FBE692E43BE61BE699F08F607AF
:10102000F60F2A4EBF00BE190096B6680F27B446C9
:101030009E07360FB646B7406646BE430927FF06F1
:10104000B446B84202D1002710E036E0204FB84243
:1010500001D101270AE01F4FB84201D1022705E064
:101060001D4FB84201D1032700E005277646B7405F
:1010700066463743009EB760184E36684F68964301
:10108000FF0300D51643154F3E607E684F689643B8
:10109000BF0300D51643114F7E60BE684F6896436C
:1010A000FF0200D516430D4FBE60FE684F689643A1
:1010B000BF0200D51643094AD6605B1C0A68164673
:1010C000DE4000D03FE7F8BD0010024000000140C4
:1010D0000004004800080048000C004800040140DB
:1010E0000069084000D001207047002A01D08161CA
:1010F00070478162704700000148806870470000B7
:101100000C000020024881680278891881607047CD
:101110000C00002010B50648016810221143016040
:10112000002000F007F800F027F8002010BD0000B4
:101130000020024070B504460D4D7D202978C00086
:10114000FEF7D0FF01460B480068FEF7CBFF00F02A
:1011500043FB002809D1042C07D200222146401E5F
:1011600000F02AF800206C6070BD012070BD000006
:101170000C0000201800002008B5084881690122F1
:1011800011438161816911400091C26901040A43E0
:10119000C261C0690840009008BD00000010024014
:1011A000002805DBC106C90E0120884001490860FE
:1011B0007047000000E100E010B501F02DFB10BD0C
:1011C000F8B505460068354CC00352D5E0690026E5
:1011D000C00007D4E16920040143E161E1690140F5
:1011E000012600912E480168C90510D401688215B6
:1011F00011430160FFF780FF074604E0FFF77CFF23
:10120000C01B642824D826480068C005F6D5206A8B
:1012100003273F02384020D06968394081421CD002
:10122000206A226AB843012109040A432262226A21
:101230008A4322622062C0070FD0FFF75DFF009053
:1012400008E0FFF759FF0099411A1648814201D979
:101250000320F8BD206A8007F3D5206A6968B84387
:1012600008432062002E04D0E16901200007814379
:10127000E1612878C00705D0206BA968800880004C
:10128000084320632878800605D5206B1021884309
:10129000E968084320630020F8BD00000010024008
:1012A0000070004088130000F8B50F46060059D0C2
:1012B0003A4D2868C007C00FB84209D228684008D4
:1012C0004000384328602868C007C00FB84249D1A1
:1012D0003068334C81070CD5400704D5606807217E
:1012E0000902084360606068F0218843B1680843E0
:1012F00060603078C00726D0706801280ED0216861
:1013000002280ED0890700292CDA61688908890033
:1013100001436160FFF7F0FE00900DE02168890352
:10132000F1E78901EFE7FFF7E7FE0099411A1D4851
:10133000814201D90320F8BD60680C210840716822
:1013400089008842EFD12868C007C00FB8420BD986
:10135000286840084000384328602868C007C00F4C
:10136000B84201D00120F8BD3078400706D560684A
:10137000072109028843F1680843606000F028F8FB
:101380006168094A0906090F515CC84007490860AD
:101390000020FFF7CFFE0020F8BD00000020024033
:1013A0000010024088130000FD2B000818000020E8
:1013B0000448054900684968044A4905490F515CD9
:1013C000C840704718000020001002400D2C000893
:1013D00010B514A30FCB88B06C460FC415A30FCB68
:1013E0000FC4184A51680C200B4603401648042BC2
:1013F00016D0082B14D18B021B0F6C46E45CD26A0A
:1014000004AB1207120F9A5CC90305D500231946D5
:10141000FEF77EFE214601E020460C4901F0D7F997
:1014200008B010BD02030405060708090A0B0C0DDD
:101430000E0F10100102030405060708090A0B0C21
:101440000D0E0F100010024000127A0000093D003E
:10145000FEB5040070D02078DC4DC0074AD0686823
:101460000007800F012807D068680007800F022856
:1014700009D16868C00306D5286880033AD560683A
:101480000028E7D036E06168012914D001208004EB
:10149000002901D0052914D02A68012109048A43B2
:1014A0002A602968814329606068002816D0FFF708
:1014B00023FE06460EE0286801210904084328603F
:1014C000F2E7296801432960F5E7FFF715FE801B65
:1014D00064286ED828688003F7D50BE0FFF70CFE70
:1014E000064604E0FFF708FE801B6428F1D8286850
:1014F0008003F7D420780126800700283CDA68684A
:101500000007800F07D068680007800F022809D104
:101510006868C00306D42868800716D5E0680128EB
:101520000AD112E0E0680028286816D0304328600D
:10153000FFF7E2FD074605E043E1FFF7DDFDC01BD5
:101540000228C6D828688007F7D52868F82188437C
:101550002169C900084328600EE040084000286067
:10156000FFF7CAFD074604E0FFF7C6FDC01B0228CF
:10157000AFD828688007F7D42078000722D5E06923
:101580000028686A0ED030436862FFF7B5FD074651
:1015900004E0FFF7B1FDC01B02289AD8686A8007F3
:1015A000F7D50FE0400840006862FFF7A5FD074649
:1015B00005E09DE0FFF7A0FDC01B022889D8686AFE
:1015C0008007F7D4207804274007002860DA00203D
:1015D0000190E869C00008D4E969B8060143E961EF
:1015E000E969014001200091019079480168C9052D
:1015F00011D40168821511430160FFF77DFD009051
:1016000005E0FFF779FD0099401A642870D870480A
:101610000068C005F5D5A06801280AD0002801D0CF
:10162000052810D0286A400840002862286AB8437C
:1016300001E0286A30432862A068002812D0FFF732
:101640005BFD00900AE0286A38432862F1E7FFF763
:1016500053FD0099411A5F48814249D8286A8007A2
:10166000F5D50DE0FFF748FD009006E0FFF744FDDB
:101670000099411A574881423AD8286A8007F5D420
:101680000198002804D0E969012000078143E9613D
:101690002078C00635D5606901280CD0401D686BE4
:1016A00023D038436863686B400840006863FFF7E5
:1016B00023FD064622E0686B38436863686B30435D
:1016C0006863FFF719FD064604E0FFF715FD801B70
:1016D00002285BD8686B8007F7D5686BF8218843D0
:1016E000A169C900084368630BE0B8436863F4E785
:1016F0004CE0FFF701FD801B022847D8686B80078C
:10170000F7D4206A00285ED069680907890F02298A
:1017100042D0012636060228286805D0B04328604A
:10172000FFF7EAFC044633E0B0432860FFF7E4FC2F
:10173000074604E0FFF7E0FCC01B022826D8286813
:101740008001F7D4E86AE16A000900010843E86211
:10175000616AA06A084369683D2212049143084304
:101760006860286830432860FFF7C6FC044604E040
:10177000FFF7C2FC001B022808D828688001F7D5B3
:1017800021E0FFF7B9FC001B022801D90320FEBDB0
:1017900028688001F5D416E00128F8D06868E96A65
:1017A00001221204636A02409A420AD10907E26ADE
:1017B000090F914205D10F2189040840A16A88428E
:1017C00001D00120FEBD0020FEBD0000001002403F
:1017D0000070004088130000094910B5401E88427F
:1017E00001D9012010BD074C60610321081F01F0E1
:1017F00013F80020A06107202061002010BD000028
:10180000FFFFFF0000E000E07047704770B5040084
:1018100005D025462035687F002802D006E001204B
:1018200070BD00202877204600F014F80220687769
:10183000211D206800F0C2FC01204034A071A8776F
:10184000E87720706070A070E07020716071687738
:10185000002070BD08B50068094988420FD10948C9
:10186000C26910210A43C261C06900220840009089
:1018700011461120FFF7A0FC1120FFF791FC08BDD5
:101880000010004000100240014620314A7F012A2A
:1018900001D00120704702224A770268D3680121F3
:1018A0000B43D3600068094A904205D0084A904231
:1018B00002D0084A904204D182685207520F062A89
:1018C00002D002680A43026000207047002C0140E9
:1018D00000040040004001400168CA6852085200FC
:1018E000CA6001680A6A084B1A4207D10A6A9B104B
:1018F0001A4203D10A68520852000A6001212030BE
:10190000417700207047000011110000704770B54A
:101910000446006801690025C9438907002915DBD1
:10192000C168C943890711D4E91E016101202077EC
:10193000206880698007204602D0FFF7E7FF04E0B7
:1019400000F096F8204600F094F8257720680169A9
:10195000C943490717D4C168C943490713D40421AF
:10196000C943016102202077206880698005800FCB
:10197000204602D0FFF7CAFF04E000F079F82046C5
:1019800000F077F8257720680169C943090716D464
:10199000C168C943090712D40821C9430161042061
:1019A00020772068C0698007204602D0FFF7AEFF8D
:1019B00004E000F05DF8204600F05BF82577206831
:1019C0000169C943C90617D4C168C943C90613D4FC
:1019D0001021C9430161082020772068C069800573
:1019E000800F204602D0FFF791FF04E000F040F89E
:1019F000204600F03EF8257720680169C943C907F1
:101A000008D1C168C943C90704D1891E01612046B4
:101A100000F030F820680169C943090609D4C1689B
:101A2000C943090605D48021C94301612046FFF757
:101A3000EBFE20680169C943490609D4C168C9435E
:101A4000490605D44021C9430161204600F013F83E
:101A500020680169C943890609D4C168C943890658
:101A600005D42021C94301612046FFF7CEFE70BD99
:101A7000704770477047704770477047F8B5026805
:101A80000446D069116896689C4B05461D4020238A
:101A9000002D75D0F7079A4DFF0FBC460D402F4320
:101AA0006DD02546C7078035002F06D0CF0504D559
:101AB000012717622A683A432A60820708D5F2078D
:101AC00006D0276802223A622A6804273A432A602D
:101AD000420708D5F20706D02668042232622A6837
:101AE000022632432A6002070AD50A461A40664691
:101AF000324305D02668082232622E6816432E60D3
:101B0000020508D54A0106D501222668D2023262B2
:101B10002A681A432A602A68002A39D0800606D526
:101B2000880604D5616E002901D0204688472868C0
:101B300021688968490602D4282108422DD0204610
:101B400000F0F2FC21688868400622D5EFF310808F
:101B5000012282F310888B68402293438B6080F3CC
:101B60001088206F002814D066494163206FFFF76A
:101B7000C0F900280CD0206F416B08E000E012E0B3
:101B8000850610D58D060ED5616E9DE020468847EE
:101B9000F8BD2046FFF771FFF8BD2046FFF76DFF47
:101BA00000202860F8BD256E012D7DD1C5067BD5AE
:101BB000CD0679D510261662226890682546400623
:101BC0004035002845DA216F086840680004000CA1
:101BD000E8D02F8B8742E5D968838869202833D0E5
:101BE000EFF31080012181F3108811683701B943A8
:101BF000116080F31088EFF31080012181F31088C9
:101C000021688A68520852008A6080F31088EFF3D6
:101C10001080012181F3108821688A684027BA4327
:101C20008A6080F31088E36700202066EFF310805D
:101C3000012181F3108821680A68B2430A6080F3A9
:101C40001088206FFFF735F9288B698B401A81B215
:101C500031E0288B698B401A81B2688B0028A1D0B3
:101C600000299FD0EFF31080012585F310881568B7
:101C7000FF272137BD43156080F31088EFF31080F4
:101C8000012282F31088226895686D086D009560C6
:101C900080F31088E367002020666066EFF3108011
:101CA000012282F3108800E009E022681368B34340
:101CB000136080F310882046FFF7DEFEF8BD0506AE
:101CC00006D50D0604D5A16E002900D05EE7F8BD4B
:101CD0004006FCD54806FAD52046EFF310810124D2
:101CE00084F3108814684025AC43146081F3108895
:101CF00083670021816600F077F8F8BD0F080000C7
:101D0000200100041525000810B5040003D0A06FC1
:101D1000002802D007E0012010BD002174200155E9
:101D2000204600F027F82420A067206801684908B1
:101D300049000160204600F027FC0128ECD0606AD1
:101D4000002802D0204600F04DFB206841680122A7
:101D5000D2029143416020688168082291438160EA
:101D600020680168012211430160204600F0A0FBB9
:101D700010BD000010B586B0044614216846FEF779
:101D800021FA17492068884227D116488269012123
:101D900089030A43826182690A4005924269C90047
:101DA0000A434261406908400590032040020090C8
:101DB0000220019000200290032003900120049053
:101DC00009206946C006FFF7B9F8002211461B201A
:101DD000FFF7F2F91B20FFF7E3F906B010BD000092
:101DE00000380140001002407047FEE7F8B50127B7
:101DF000534E0028377000D03770524C20212046B7
:101E0000FFF76EF9504D00282DD008212046FFF72E
:101E100067F9002827D080212846FFF761F90028BC
:101E200021D040212846FFF75BF900281BD009206C
:101E30006101C006FFF754F9002814D0012189027E
:101E40002046FFF74DF900280DD00121C902204698
:101E5000FFF746F9002806D020212046FFF740F979
:101E6000002842D06AE0282000F008FD00203070F1
:101E700020212046FFF734F9002828D008212046E9
:101E8000FFF72EF9002824D080212846FFF728F9F3
:101E9000002820D040212846FFF722F900281CD036
:101EA00001210920C903C006FFF71AF9002816D03E
:101EB000012189022046FFF713F9002811D00121E2
:101EC000C9022046FFF70CF900280CD036E00120AB
:101ED000F8BD0220F8BD0320F8BD0420F8BD0520A0
:101EE000F8BD0620F8BD0720F8BD08212046FFF701
:101EF000F7F8002822D180212846FFF7F1F80028C2
:101F00001CD140212846FFF7EBF8002816D101210B
:101F10000920C903C006FFF7E3F800280ED101210C
:101F200089022046FFF7DCF8002807D10121C90209
:101F30002046FFF7D5F8002800D137700020F8BD03
:101F40000000002000040048001400483EB50021B5
:101F5000184800910191164A0291026081600124A3
:101F6000520504614260C1600422426101764176FB
:101F70008176FF22C176C232C261024601622032FE
:101F800011718462FEF7F2FD002801D0FEF7A2FC79
:101F90000120000301900004029000946946054866
:101FA000FEF7EEFC002801D0FEF794FC3EBD0000D9
:101FB000002401401C000020F0B587B014216846C1
:101FC000FEF700F92D484269012189050A43426163
:101FD00042690A400592426949110A4342614269D5
:101FE0000A400592426949000A4342614069002261
:101FF0000840059022492348FFF777F80326092770
:10200000F602FF06002231463846FFF76EF81C48FC
:10201000002410380125009002946946019503942C
:102020001848FEF78BFF18486A4631C269461548C2
:10203000FEF784FF812000026A4631C269463846B5
:10204000FEF77CFF0294694638460096019503949A
:10205000FEF774FFC0206A4631C269460B48FEF79E
:102060006DFF1020009002200290019569460394B4
:102070000448FEF763FF07B0F0BD00000010024007
:102080001370000000040048E88F000000140048AE
:1020900010B50A4808490160094941600021816082
:1020A0000849C16080218161FFF7B0FB002801D0A1
:1020B000FEF710FC10BD0000001000405C00002086
:1020C0007FBB000060EA000010B50C480A490160BF
:1020D0004B214902416000218160C1600161816141
:1020E000C1610C22016242614162FFF70DFE0028CE
:1020F00001D0FEF7EFFB10BD00380140A400002026
:10210000FEE77047704710B5FEF7FCFF10BD70B5D5
:1021100094B030216846FEF755F800240E941394CD
:1021200010200994022504900D940F940520129418
:1021300001260095C0040C94109403960A90119403
:1021400008950B946846FFF783F9002801D072B612
:10215000FEE707200C900E9401210D950F940CA81A
:10216000FFF7A2F8002801D072B6FEE710A810967B
:102170001294FFF725F8002801D072B6FEE714B0DC
:1021800070BD704710B50948FFF7C1FB08480178DA
:10219000002904D0491E0906090E017005D1054920
:1021A0000220087004490120087010BD5C00002066
:1021B000020000200500002006000020F0B50268A3
:1021C0001A4B1B4C984201D0A04203D17025AA4360
:1021D0004D682A43174D184E184F98420AD0A04216
:1021E00008D0174CA04205D0A84203D0B04201D07D
:1021F000B84205D11446032212029443CA6822430E
:102200008024A2434C69224302608A68C2620A6841
:102210008262984205D0A84203D0B04201D0B842B1
:1022200001D10969016301214161F0BD002C014028
:1022300000040040004001400044014000480140CB
:102240000020004010B509240122E40611032046B5
:10225000FEF74BFF0122D1022046FEF746FF00F0B9
:1022600042F8442000F07DF800F060F800F03BF800
:102270008C2000F076F800F059F810BD30B587B02A
:102280000C460546182209496846FDF782FF00F012
:102290002AF8C035E8B200F064F86846005D00F046
:1022A00060F800F043F807B030BD0000E82B0008EC
:1022B00070B50C46054600F016F8C035E8B200F0DF
:1022C00050F8002C05D0012C05D0022C09D000209C
:1022D00002E0802000E0402000F043F800F026F803
:1022E00070BD2020F8E770B5012209251403ED0622
:1022F00021462846FEF7F9FE0122D602314628463D
:10230000FEF7F3FE012000F0C9FA0022214628461C
:10231000FEF7EBFE012000F0C1FA0022314628460C
:10232000FEF7E3FE012000F0B9FA70BD70B501249C
:1023300009252403ED06002221462846FEF7D5FE96
:102340000122D1022846FEF7D0FE012000F0A6FAB5
:10235000012221462846FEF7C8FE012000F09EFA21
:1023600070BDF8B5092604460121F60600220903CE
:102370003046FEF7BAFE01210022C9023046FEF7C0
:10238000B4FE00250127FF02002239463046FEF741
:10239000ACFE012000F082FAE00701D0012200E04B
:1023A0000022012109033046FEF79FFE012000F0C4
:1023B00075FA012239463046FEF797FE012000F0FB
:1023C0006DFA6D1C6408EDB2082DDDD301210022E9
:1023D00009033046FEF789FE002239463046FEF7F3
:1023E00084FEF8BD10B5818CC90707D001684A6822
:1023F00001235B049A43836A1A434A60818C8907EC
:1024000007D501684A6801231B049A43C36A1A432B
:102410004A60818C490707D501684A6801239B04FB
:102420009A43036B1A434A60818C090707D50168F8
:102430004A680123DB039A43436B1A434A60818C49
:10244000C90607D50268916801231B039943836B72
:1024500019439160818C890607D501688A68012338
:102460005B039A43C36B1A438A60818C490612D579
:1024700003685A6801210905046C8A4322435A60A3
:10248000026C8A4207D10268516803235B059943B5
:10249000436C19435160818C090607D501684A686D
:1024A0000123DB04806C9A4302434A6010BD0000A4
:1024B000F8B50446002680300660FEF71DFE05468E
:1024C00020680068124F000709D501212B46002221
:1024D00049052046009700F0F1F800280DD120684A
:1024E000006840070BD501212B46002289052046B4
:1024F000009700F0E3F8002801D00320F8BD202069
:10250000A067E0672666603426750020F8BD0000ED
:10251000FFFFFF0110B5406A0022014640314A83A7
:102520004A82FFF7AAFA10BD10B5EFF3108101221D
:1025300082F3108802681368FF242134A3431360D8
:1025400081F31088EFF31081012282F31088026872
:1025500093685B085B00936081F31088016E01292A
:102560000BD1EFF31081012282F310880268136807
:102570001024A343136081F310882021C167002138
:102580000166416610BD000070B50446806821698F
:10259000E269084361690025114322680843116814
:1025A000404B19400143116021684868032212031F
:1025B0009043E26810434860A169206A084321689B
:1025C0008A680B231B029A4302438A6036492068BB
:1025D000884210D13548006B8007800F0ED001284B
:1025E00005D0022805D003280AD1022109E00421E0
:1025F00007E0082105E02E49884201D1002100E0D2
:1026000010210120E369C0032A4A2B4E834223D1C3
:10261000002906D0022907D0042907D0082937D17C
:1026200008E0FEF7C5FE03E0104603E0FEF7D0FE2B
:10263000002831D0616840004A088018FDF752FD3B
:1026400080B201461039B14222D81B49491C0140D1
:102650000007400F08431DE0002906D0022907D0DB
:10266000042907D0082913D108E0FEF7A1FE03E0F2
:10267000104603E0FEF7ACFE00280DD061684A0862
:102680001018FDF72FFD80B201461039B14201D973
:10269000012501E02168C86000206066A066284628
:1026A00070BD0000F369FFFF0038014000100240D8
:1026B0000044004000127A00EFFF0000FFB581B037
:1026C00005461746044660350A9E55E0701C53D0F7
:1026D000FEF712FD0499401AB04230D8002E2ED0D9
:1026E00020680168490747D5C069C043000543D445
:1026F00001202168C0020862EFF31080012181F3FC
:10270000108821680B68FF22A13293430B6080F38D
:102710001088EFF31080012181F3108821688A6806
:10272000520852008A6080F310882020A067E0677A
:102730008034206000202875032005B0F0BDEFF341
:102740001080012181F3108821680B68FF22A132DB
:1027500093430B6080F31088EFF31080012181F325
:10276000108821688A68520852008A6080F31088B5
:102770002020A067E067DDE72068C16902988843F0
:1027800004D00020B842A1D00020D6E70120F9E70C
:1027900010B50248FFF772F910BD0000A400002038
:1027A0002021020C01D010211046020A01D010464F
:1027B0000839020901D01046091F820801D01046CD
:1027C000891E420801D0881E7047081A7047F8B564
:1027D000040C8BB2264682B25E430D0C1046370CB9
:1027E0005843360480190021794116466E43370C50
:1027F00036048019794126466E438919F8BD30B4F4
:102800007446641E2578641CAB4200D21D46635D8D
:102810005B00E31830BC18478307FF22DB0E9A40A9
:102820008907090E9940002808DB830809489B00A6
:102830001B18186890430843186070470007000F82
:102840000838830804489B001B18D8699043084344
:10285000D861704700E400E000ED00E002E008C845
:10286000121F08C1002AFAD170477047002001E00A
:1028700001C1121F002AFBD170470000064B05E082
:1028800019460A46491E89B2002AFAD10146401E5D
:1028900080B20029F4D17047DF2E000005E00B2143
:1028A0000A46491E89B2002AFAD10146401E80B26A
:1028B0000029F4D1704700001CB5FEF72BFCFFF790
:1028C00026FCFFF779FBFFF741FBFFF7FDFBFFF766
:1028D000DFFBFFF7B7FC012200259103BD48FEF79F
:1028E00004FCBD4CFDF7F8FFA0700020FFF77EFA56
:1028F000A07200287ED0002666710121217103009C
:10290000FFF77DFF0816251F17052841A816B348B5
:10291000FEF7E2FFB14901200968C0430861207851
:10292000002802D0401E20706070AC48FEF7ACFF5B
:10293000F0E0AA4901200968C04308612078401CE2
:10294000F1E7E078002801D0401EE070EDE0E0788B
:10295000401CFAE7A078002D0AD0FDF7FBFD00220D
:102960009F4BFDF755FDFDF727FEA0700025DCE02D
:10297000FDF7F0FD00229A4BFDF7E2FCFDF71CFE8F
:10298000A0700125D1E0012291039248FEF7ADFB32
:10299000E079002817D0A078002D0FD0FDF7DAFDE0
:1029A00000228F4BFDF734FD00228E4BFDF716FC05
:1029B000FDF702FEA0710020E07106E00A30A07170
:1029C0000020E0712FE0002D2DD0A079C01CFDF774
:1029D000C1FD07460091A078FDF7BCFD0022804BA9
:1029E000FDF716FD3A46009BFDF704FE1AD2A079CA
:1029F000C01E00E08BE0FDF799FD07460091A0782E
:102A0000FDF7A8FD0022764BFDF702FD3A46009B3C
:102A10001CE00121002289036E48FEF766FBA671C7
:102A20000120E07176E0A079A778C11C8F4271D2B5
:102A3000C01EFDF77BFD009001913846FDF78AFD31
:102A40000022674BFDF7E4FC019B009AFDF7E6FDD1
:102A500060D2DEE7012211465E48FEF746FB607A4F
:102A6000002817D0A078002D0FD0FDF773FD0022AD
:102A70005B4BFDF7CDFC00225A4BFDF753FCFDF7F5
:102A80009BFD20720020607206E00A382072002050
:102A9000607225E0002D23D0207AC01CFDF75AFD7E
:102AA00007460091A078FDF755FD00224C4BFDF73D
:102AB000AFFC3A46009BFDF79DFD2BD2207AC01E4D
:102AC000FDF734FD01910090A07814E0012100226F
:102AD00089034048FEF709FB26720120607219E065
:102AE000207AA778C11C8F4214D2C01EFDF71EFDAC
:102AF000009001913846FDF72DFD0022384BFDF77F
:102B000087FC019B009AFDF789FD03D2DEE70A20CE
:102B1000FFF7B4FE6079002807D0012210212D486C
:102B2000FEF7E3FA0A20FFF7A9FE21790D20FFF74F
:102B3000BFFB0A21A078FDF7D5FA06460220FFF771
:102B40009DFB0A213046FDF7CDFA07460126F0B27B
:102B5000FFF794FB0A213846FDF7C4FA0746761EB4
:102B6000F5D50A21E078FDF7BDFA07460526F0B253
:102B7000FFF784FB0A213846FDF7B4FA761E0746B4
:102B8000022EF4DC0A216078FDF7ACFA074608262D
:102B9000F0B2FFF773FB0A213846FDF7A3FA761E61
:102BA0000746052EF4DC0A212078FDF79BFA07463C
:102BB0000B26F0B2FFF762FB0A213846FDF792FAC6
:102BC000761E0746082EF4DC03210C20FFF770FB6D
:102BD00088E6000000040048010000205C0000209E
:102BE00000001E4000002440EB88B3BAD87A7BA8CE
:102BF000FBFA0000000000000000000000000000E0
:102C0000000000000001020304060708090000009C
:102C10000001020304000000382C0008000000201E
:102C20001C0000005C280008542C00081C00002038
:102C30000C0500006C2800080000000000000000E7
:102C4000010001000100000004000000000000007D
:042C500000127A00F4
:04000005080000B53A
:00000001FF
