:020000040800F2
:100000008807002091010008651900087F17000883
:1000100000000000000000000000000000000000E0
:100020000000000000000000000000006919000846
:100030000000000000000000671900086B190008AC
:10004000A301000800000000A3010008A3010008AC
:10005000A3010008A3010008A3010008A3010008F0
:1000600000000000A3010008A3010008A30100088C
:10007000D1040008A3010008A3010008000000004B
:10008000A3010008E919000800000000A30100080E
:10009000A3010008A3010008A3010008A3010008B0
:1000A000A3010008A3010008A3010008A91F00087C
:1000B000A301000800F002F800F03EF80CA030C8E0
:1000C000083824182D18A246671EAB4654465D46D4
:1000D000AC4201D100F030F87E460F3E0FCCB64660
:1000E0000126334200D0FB1AA246AB4633431847E1
:1000F0003C2000005C200000103A02D378C878C190
:10010000FAD8520701D330C830C101D504680C6059
:10011000704700000023002400250026103A01D378
:1001200078C1FBD8520700D330C100D50B607047AF
:100130001FB51FBD10B510BD00F097F91146FFF7B0
:10014000F7FF01F073FF00F0AFF903B4FFF7F2FF20
:1001500003BC00F0B5F9000070B505460C46164624
:1001600002E00FCC0FC5103E102EFAD2082E02D39B
:1001700003CC03C5083E042E07D301CC01C5361FAE
:1001800003E021782970641C6D1C761EF9D270BDC5
:100190000748804707480047FEE7FEE7FEE7FEE71F
:1001A000FEE7FEE704480549054A064B7047000094
:1001B000E7190008B5000008880100208807002022
:1001C0008803002088030020FEB5054610460C4633
:1001D000184373D0AE468C460020AD1A01469C41B0
:1001E00067D36646002701243D46B61A9D4102D3D7
:1001F00013463A462124654676462F04360C3E4384
:100200002D0CB61A9D4104D3150C1B042B4312046C
:100210001034654676462F06360A3E432D0AB61A36
:100220009D4104D3150E1B022B4312020834654670
:1002300076462F0736093E432D09B61A9D4104D351
:10024000150F1B012B431201241D65467646AF078F
:10025000B6083E43AD08B61A9D4104D3950F9B00E6
:100260002B439200A41C65467646EF0776083E4372
:100270006D08B61A9D411AD392185B41641C16E0B2
:100280000018764665464941B71A9D410191009094
:1002900009D36046B11A98418E4684460098019968
:1002A0000025401C6941DD0752082A435B08641E93
:1002B000E6D57246634603B0F0BDFFE70020014675
:1002C000C046C0462A462346F5E701E004C0091FA0
:1002D0000429FBD28B0701D50280801CC90700D0FE
:1002E0000270704700290BD0C30702D00270401C77
:1002F000491E022904D3830702D50280801C891E6F
:10030000E3E70022EEE70022DFE7002203098B4249
:100310002CD3030A8B4211D300239C464EE00346A4
:100320000B433CD4002243088B4231D303098B4258
:100330001CD3030A8B4201D394463FE0C3098B428E
:1003400001D3CB01C01A524183098B4201D38B01E7
:10035000C01A524143098B4201D34B01C01A52418A
:1003600003098B4201D30B01C01A5241C3088B42CF
:1003700001D3CB00C01A524183088B4201D38B00BA
:10038000C01A524143088B4201D34B00C01A52415C
:10039000411A00D201465241104670475DE0CA0F33
:1003A00000D04942031000D34042534000229C46F3
:1003B00003098B422DD3030A8B4212D3FC228901FD
:1003C00012BA030A8B420CD3890192118B4208D3D3
:1003D000890192118B4204D389013AD0921100E035
:1003E0008909C3098B4201D3CB01C01A5241830949
:1003F0008B4201D38B01C01A524143098B4201D376
:100400004B01C01A524103098B4201D30B01C01AA0
:100410005241C3088B4201D3CB00C01A524183081A
:100420008B4201D38B00C01A5241D9D243088B4270
:1004300001D34B00C01A5241411A00D20146634613
:1004400052415B10104601D34042002B00D5494277
:10045000704763465B1000D3404201B50020C046A0
:10046000C04602BD704770477047754600F024F8DB
:10047000AE46050069465346C008C000854618B020
:1004800020B5FFF78FFE60BC00274908B64600265E
:10049000C0C5C0C5C0C5C0C5C0C5C0C5C0C5C0C534
:1004A000403D49008D46704710B50446C046C046E1
:1004B0002046FFF74AFE10BD004870472801002083
:1004C00001491820ABBEFEE726000200704700007D
:1004D00010B5024800F090F810BD00001C0000208C
:1004E00072B6FEE7F8B50025044620340095227D5B
:1004F000012A39D00122227503689E68760767D4E5
:10050000384F4E68BE424DD09E6A0F78BA401643AF
:100510009E620123C26A1B079A421FD0012A1DD086
:10052000022A1BD0032A19D0042A17D0052A15D075
:10053000062A13D0072A11D002688B6856697607FD
:10054000760FB3420AD05369DB08DB0053610068C1
:1005500042690B7A5B075B0F1A4342610A68102AF3
:1005600004D0112A02D038E00220F8BD1E4883686A
:10057000102A07D0012292051343836008681028CF
:1005800003D02AE00122D205F6E71948174900688E
:10059000FFF7BBFE0A21484300E0401E0090002800
:1005A000FBD11AE0986A0E78B240904398620968CD
:1005B000102901D0112910D10B488268102904D0CC
:1005C000012189058A43826007E00121C905F9E715
:1005D000816B20221143816301250020207528466C
:1005E000F8BD0000011000000027014040420F004C
:1005F000180000207047704770B504460068016815
:10060000490702D54168490705D40168090730D573
:10061000416809072DD5A16BC90604D4A16B01223D
:1006200052021143A163C1680C250905890F0029F5
:100630001AD1A17E002917D10168090714D5816854
:100640004A070121002A08DB4268AA434260A06BE6
:100650000A0290430843A06306E0A06B20221043E7
:10066000A063E06B0843E0632046FFF7C3FF206808
:1006700005602068016809060DD5406800060AD5A6
:10068000A06B012109040843A063204600F0D8F8BC
:1006900021688020086020680168C90613D5416878
:1006A000C90610D5A16A1025012902D0C168C90761
:1006B00007D0E16B02221143E16305602046FFF79A
:1006C0009AFF2068056070BDF8B500260446002832
:1006D00005D0A06B25462035002802D007E0012078
:1006E000F8BD0020E0632875204600F0ABF8A06B51
:1006F0001022C006002870DB2068816849076CD48E
:10070000A16B1301994302231943A16381688907EF
:10071000890F012905D10168C9070FD1C1680904F2
:100720000CD4C16818239943A3681943C160206899
:100730000169636889008908194301612068C168FB
:100740003D4B1940C160207E617E8003C903084390
:10075000A17E4B031843A36A012B02D001231B0384
:1007600000E000231843E36818432369022B09D0F3
:10077000002318432B79E57E5B0018430123012DEC
:1007800002D00AE00423F4E7002927D0A16B20253A
:100790002943A163E16B1943E163E1690D46FF3D24
:1007A000C23D02D0256A294308432168CD6805432C
:1007B000CD600125E16A2D07A94213D0012911D08E
:1007C00002290FD003290DD004290BD0052909D007
:1007D000062907D0072905D010E028E001210904E7
:1007E0000843DAE721684D69ED08ED004D612168A5
:1007F0004D69A78D7F077F0F3D434D612168C96813
:100800000E4D2940814207D10020E063A06B800893
:100810008000401CA06308E0A06B022188431043C5
:10082000A063E06B1843E06301263046F8BDA06B7F
:100830001043A063F8E700001902FEFFE7FF3F83C3
:100840007047000010B586B0044614216846FFF7D3
:100850005AFD14492068884221D113488269411504
:100860000A43826182690A400592426909020A4389
:100870004261406908400590662000900320019085
:100880000020029009206946C00600F065F80022A9
:1008900011460C2000F098F90C2000F089F906B000
:1008A00010BD0000002401400010024030B5014698
:1008B00020314B780022022B04D0042383630A707A
:1008C000012030BD03681C680E25AC431C60036822
:1008D0001C68640864001C600123056C1C46C06B26
:1008E000AC4044604B700A70002030BD70B50024ED
:1008F000014620314A78022A03D004218163012471
:1009000016E0026813680E25AB4313600268136893
:100910005B085B0013600122056C1346AB40C56B9E
:100920006B604A7000220A70416B002900D0884732
:10093000204670BD70B5044600F0E6F80546601C20
:1009400002D004480078241800F0DEF8401BA042D2
:10095000FAD370BD0C000020F8B500230324012554
:10096000BAE02E469E40B44632407CD00E79B6079F
:10097000B60F012E01D0022E17D186682746B64643
:100980005E00B74000967646BE43B646CF68009EEE
:10099000B74076463743876046686746BE430F795F
:1009A000FF06FF0F9F40374347600E79F643B607B7
:1009B0000ED0C6682746B4465E00B646B7406646C7
:1009C000BE43B4468F687646B74066463743C76035
:1009D0000E79B607B60F022E14D1DE08B60036180F
:1009E0000096366A5F07B446FE0E0F27B646B7403C
:1009F0006646BE43B4460F697646B74066463743FF
:100A0000009E376206682746B4465E00B646B74089
:100A10006646BE430F79B446BF07BF0F7646B74060
:100A20006646374307604E68B603B60F53D02D4F66
:100A3000BE692E43BE61BE699F08F607F60F2A4EB7
:100A4000BF00BE190096B6680F27B4469E07360F42
:100A5000B646B7406646BE430927FF06B446B842CD
:100A600002D1002710E036E0204FB84201D1012723
:100A70000AE01F4FB84201D1022705E01D4FB842DE
:100A800001D1032700E005277646B7406646374385
:100A9000009EB760184E36684F689643FF0300D536
:100AA0001643154F3E607E684F689643BF0300D5DE
:100AB0001643114F7E60BE684F689643FF0200D513
:100AC00016430D4FBE60FE684F689643BF0200D5C7
:100AD0001643094AD6605B1C0A681646DE4000D001
:100AE0003FE7F8BD0010024000000140000400484C
:100AF00000080048000C004800040140002A01D012
:100B000081617047816270470148806870470000CA
:100B10000C000020024881680278891881607047C3
:100B20000C00002010B50648016810221143016036
:100B3000032000F007F800F027F8002010BD0000A7
:100B40000020024070B504460D4D7D202978C0007C
:100B5000FFF7DBFB01460B480068FFF7D6FB00F010
:100B600047FB002809D1042C07D200222146401E51
:100B700000F02AF800206C6070BD012070BD0000FC
:100B80000C0000201800002008B5084881690122E7
:100B900011438161816911400091C26901040A43D6
:100BA000C261C0690840009008BD0000001002400A
:100BB000002805DBC106C90E0120884001490860F4
:100BC0007047000000E100E010B501F00DFA10BD23
:100BD000F8B505460068354CC00352D5E0690026DB
:100BE000C00007D4E16920040143E161E1690140EB
:100BF000012600912E480168C90510D401688215AC
:100C000011430160FFF780FF074604E0FFF77CFF18
:100C1000C01B642824D826480068C005F6D5206A81
:100C200003273F02384020D06968394081421CD0F8
:100C3000206A226AB843012109040A432262226A17
:100C40008A4322622062C0070FD0FFF75DFF009049
:100C500008E0FFF759FF0099411A1648814201D96F
:100C60000320F8BD206A8007F3D5206A6968B8437D
:100C700008432062002E04D0E1690120000781436F
:100C8000E1612878C00705D0206BA9688008800042
:100C9000084320632878800605D5206B10218843FF
:100CA000E968084320630020F8BD000000100240FE
:100CB0000070004088130000F8B50F46060059D0B8
:100CC0003A4D2868C007C00FB84209D228684008CA
:100CD0004000384328602868C007C00FB84249D197
:100CE0003068334C81070CD5400704D56068072174
:100CF0000902084360606068F0218843B1680843D6
:100D000060603078C00726D0706801280ED0216856
:100D100002280ED0890700292CDA61688908890029
:100D200001436160FFF7F0FE00900DE02168890348
:100D3000F1E78901EFE7FFF7E7FE0099411A1D4847
:100D4000814201D90320F8BD60680C210840716818
:100D500089008842EFD12868C007C00FB8420BD97C
:100D6000286840084000384328602868C007C00F42
:100D7000B84201D00120F8BD3078400706D5606840
:100D8000072109028843F1680843606000F028F8F1
:100D90006168094A0906090F515CC84007490860A3
:100DA0000320FFF7CFFE0020F8BD00000020024026
:100DB00000100240881300001421000818000020D1
:100DC0000448054900684968044A4905490F515CCF
:100DD000C84070471800002000100240242100087D
:100DE00010B515A30FCB88B06C460FC416A30FCB5C
:100DF0000FC4194A51680C200B4603401748042BB6
:100E000002D0082B02D0164808B010BD8B021B0F71
:100E10006C46E45CD26A04AB1207120F9A5CC903F9
:100E200005D500231946FFF7CFF9214601E02046FA
:100E30000C4901F0C1F8E7E70203040506070809B9
:100E40000A0B0C0D0E0F1010010203040506070813
:100E5000090A0B0C0D0E0F1000100240001BB7000A
:100E600000127A0000093D00FEB5040070D0207821
:100E7000DC4DC0074AD068680007800F012807D002
:100E800068680007800F022809D16868C00306D58A
:100E9000286880033AD560680028E7D036E06168AA
:100EA000012914D001208004002901D0052914D083
:100EB0002A68012109048A432A602968814329603C
:100EC0006068002816D0FFF71FFE06460EE028686F
:100ED0000121090408432860F2E7296801432960D9
:100EE000F5E7FFF711FE801B64286ED828688003A1
:100EF000F7D50BE0FFF708FE064604E0FFF704FE17
:100F0000801B6428F1D828688003F7D42078012654
:100F1000800700283CDA68680007800F07D06868FF
:100F20000007800F022809D16868C00306D428682A
:100F3000800716D5E06801280AD112E0E068002891
:100F4000286816D030432860FFF7DEFD074605E02D
:100F500043E1FFF7D9FDC01B0228C6D828688007E7
:100F6000F7D52868F82188432169C900084328601B
:100F70000EE0400840002860FFF7C6FD074604E089
:100F8000FFF7C2FDC01B0228AFD828688007F7D43E
:100F90002078000722D5E0690028686A0ED0304327
:100FA0006862FFF7B1FD074604E0FFF7ADFDC01B27
:100FB00002289AD8686A8007F7D50FE040084000F9
:100FC0006862FFF7A1FD074605E09DE0FFF79CFD85
:100FD000C01B022889D8686A8007F7D420780427C4
:100FE0004007002860DA00200190E869C00008D4BA
:100FF000E969B8060143E961E9690140012000910E
:10100000019079480168C90511D40168821511431E
:101010000160FFF779FD009005E0FFF775FD00998D
:10102000401A642870D870480068C005F5D5A068DB
:1010300001280AD0002801D0052810D0286A4008CD
:1010400040002862286AB84301E0286A30432862D9
:10105000A068002812D0FFF757FD00900AE0286A28
:1010600038432862F1E7FFF74FFD0099411A5F48C6
:10107000814249D8286A8007F5D50DE0FFF744FD85
:10108000009006E0FFF740FD0099411A5748814261
:101090003AD8286A8007F5D40198002804D0E96975
:1010A000012000078143E9612078C00635D56069D9
:1010B00001280CD0401D686B23D038436863686BEF
:1010C000400840006863FFF71FFD064622E0686B9A
:1010D00038436863686B30436863FFF715FD064665
:1010E00004E0FFF711FD801B02285BD8686B8007C6
:1010F000F7D5686BF8218843A169C9000843686384
:101100000BE0B8436863F4E74CE0FFF7FDFC801B9D
:10111000022847D8686B8007F7D4206A00285ED081
:1011200069680907890F022942D00126360602287C
:10113000286805D0B0432860FFF7E6FC044633E09A
:10114000B0432860FFF7E0FC074604E0FFF7DCFC53
:10115000C01B022826D828688001F7D4E86AE16A13
:10116000000900010843E862616AA06A08436968EF
:101170003D22120491430843686028683043286088
:10118000FFF7C2FC044604E0FFF7BEFC001B022888
:1011900008D828688001F7D521E0FFF7B5FC001BCF
:1011A000022801D90320FEBD28688001F5D416E08D
:1011B0000128F8D06868E96A01221204636A0240D3
:1011C0009A420AD10907E26A090F914205D10F211B
:1011D00089040840A16A884201D00120FEBD002098
:1011E000FEBD0000001002400070004088130000A7
:1011F000094910B5401E884201D9012010BD074C95
:1012000060610321081F00F0EFFE0020A0610720AD
:101210002061002010BD0000FFFFFF0000E000E0A3
:101220007047704770B5040005D025462035687FAB
:10123000002802D006E0012070BD0020287720465B
:1012400000F014F802206877211D206800F0D4FB1C
:1012500001204034A071A877E87720706070A070FA
:10126000E070207160716877002070BD08B500687B
:10127000094988420FD10948C26910210A43C26155
:10128000C06900220840009011461120FFF79CFC25
:101290001120FFF78DFC08BD001000400010024037
:1012A000704770B50446006801690025C943890785
:1012B000002915DBC168C943890711D4E91E016102
:1012C00001202077206880698007204602D0FFF740
:1012D000E7FF04E000F096F8204600F094F8257748
:1012E00020680169C943490717D4C168C943490740
:1012F00013D40421C943016102202077206880694A
:101300008005800F204602D0FFF7CAFF04E000F0FE
:1013100079F8204600F077F8257720680169C943FD
:10132000090716D4C168C943090712D40821C94363
:101330000161042020772068C0698007204602D020
:10134000FFF7AEFF04E000F05DF8204600F05BF828
:10135000257720680169C943C90617D4C168C94304
:10136000C90613D41021C9430161082020772068E1
:10137000C0698005800F204602D0FFF791FF04E08E
:1013800000F040F8204600F03EF82577206801691B
:10139000C943C90708D1C168C943C90704D1891E17
:1013A0000161204600F030F820680169C943090650
:1013B00009D4C168C943090605D48021C943016124
:1013C0002046FFF72DFF20680169C943490609D46B
:1013D000C168C943490605D44021C943016120467B
:1013E00000F013F820680169C943890609D4C1686F
:1013F000C943890605D42021C94301612046FFF76E
:1014000010FF70BD70477047704770477047704756
:10141000F8B502680446D069116896689C4B054689
:101420001D402023002D75D0F7079A4DFF0FBC46B5
:101430000D402F436DD02546C7078035002F06D0BD
:10144000CF0504D5012717622A683A432A6082072C
:1014500008D5F20706D0276802223A622A680427D4
:101460003A432A60420708D5F20706D026680422CC
:1014700032622A68022632432A6002070AD50A46E7
:101480001A406646324305D02668082232622E682A
:1014900016432E60020508D54A0106D501222668AA
:1014A000D20232622A681A432A602A68002A39D096
:1014B000800606D5880604D5616E002901D0204635
:1014C0008847286821688968490602D4282108428B
:1014D0002DD0204600F034FC21688868400622D5D3
:1014E000EFF31080012282F310888B68402293432F
:1014F0008B6080F31088206F002814D06649416308
:10150000206FFFF7F3F900280CD0206F416B08E043
:1015100000E012E0850610D58D060ED5616E9DE0C7
:1015200020468847F8BD2046FFF771FFF8BD2046EA
:10153000FFF76DFF00202860F8BD256E012D7DD1DD
:10154000C5067BD5CD0679D510261662226890682F
:10155000254640064035002845DA216F0868406876
:101560000004000CE8D02F8B8742E5D96883886996
:10157000202833D0EFF31080012181F31088116807
:101580003701B943116080F31088EFF31080012117
:1015900081F3108821688A68520852008A6080F3BB
:1015A0001088EFF31080012181F3108821688A6888
:1015B0004027BA438A6080F31088E36700202066E2
:1015C000EFF31080012181F3108821680A68B2438B
:1015D0000A6080F31088206FFFF768F9288B698B09
:1015E000401A81B231E0288B698B401A81B2688B36
:1015F0000028A1D000299FD0EFF31080012585F3AA
:1016000010881568FF272137BD43156080F31088C7
:10161000EFF31080012282F31088226895686D082C
:101620006D00956080F31088E36700202066606697
:10163000EFF31080012282F3108800E009E02268B5
:101640001368B343136080F310882046FFF7DEFE73
:10165000F8BD050606D50D0604D5A16E002900D0FB
:101660005EE7F8BD4006FCD54806FAD52046EFF304
:101670001081012484F3108814684025AC43146061
:1016800081F3108883670021816600F077F8F8BD48
:101690000F080000200100042D1D000810B50400F3
:1016A00003D0A06F002802D007E0012010BD002168
:1016B00074200155204600F027F82420A0672068F8
:1016C0000168490849000160204600F069FB0128D3
:1016D000ECD0606A002802D0204600F090FA206822
:1016E00041680122D202914341602068816808224A
:1016F0009143816020680168012211430160204606
:1017000000F0E2FA10BD000010B586B004461421C6
:101710006846FEF7F8FD17492068884227D1164829
:101720008269012189030A43826182690A40059224
:101730004269C9000A43426140690840059003209C
:1017400040020090022001900020029003200390AC
:101750000120049009206946C006FFF7FDF8002229
:1017600011461B20FFF730FA1B20FFF721FA06B0C5
:1017700010BD000000380140001002407047FEE735
:10178000002802D0024901200870002070470000A4
:10179000000000203EB50021274800910191254A14
:1017A0000291026081600124520504614260C160BF
:1017B00004224261017641768176FF22C176C232EF
:1017C000C26102460162203211718462FEF77CFF21
:1017D000002801D0FEF784FE0120000301900004E0
:1017E0000290009469461448FEF77CFE002801D060
:1017F000FEF776FE0220009069460F48FEF772FE63
:10180000002801D0FEF76CFE0520009069460A48CA
:10181000FEF768FE002801D0FEF762FE0620009069
:1018200069460548FEF75EFE002801D0FEF758FE27
:101830003EBD0000002401401C000020F0B587B030
:1018400014216846FEF75FFD284842690121890599
:101850000A43426142690A400592426949110A43BA
:10186000426142690A400592426949000A43426165
:10187000406909260840F6060590002218213046E6
:10188000FFF73CF91A4F002287213846FFF736F957
:101890001820009003200125002403900195029454
:1018A00069463046FFF758F8872000900294694651
:1018B000019503943846FFF74FF80E4800900194C5
:1018C000694602943846FFF747F8E8036A4631C292
:1018D00069463046FFF740F838206A4631C269460B
:1018E0003846FFF739F807B0F0BD0000001002409D
:1018F000000400484073000010B50A480849016020
:101900002F214160002181600749C16080218161F0
:10191000FFF788FC002801D0FEF7E2FD10BD0000B3
:10192000001000405C00002050C3000010B50C48BF
:101930000A4901604B214902416000218160C16078
:1019400001618161C1610C22016242614162FFF764
:10195000A5FE002801D0FEF7C3FD10BD00380140F0
:10196000A4000020FEE77047704710B5FFF7D2F8DB
:1019700010BD70B594B030216846FEF7C4FC002459
:101980000E94139410200994022504900D940F9442
:101990000520129401260095C0040C94109403961F
:1019A0000A90119408950B946846FFF75DFA002899
:1019B00001D072B6FEE707200C900E9401210D9520
:1019C0000F940CA8FFF778F9002801D072B6FEE753
:1019D00010A810961294FFF7FBF8002801D072B6F9
:1019E000FEE714B070BD704710B50248FFF759FC10
:1019F00010BD00005C000020F0B502681A4B1B4CC3
:101A0000984201D0A04203D17025AA434D682A43D1
:101A1000174D184E184F98420AD0A04208D0174CC4
:101A2000A04205D0A84203D0B04201D0B84205D1AF
:101A30001446032212029443CA6822438024A2431C
:101A40004C69224302608A68C2620A6882629842D4
:101A500005D0A84203D0B04201D0B84201D10969F3
:101A6000016301214161F0BD002C014000040040F0
:101A70000040014000440140004801400020004077
:101A800010B509240122E40691032046FFF736F839
:101A9000012251032046FFF731F800F031F84420CD
:101AA00000F06CF800F04FF800F02AF88C2000F0FD
:101AB00065F800F048F810BD30B587B00C46054613
:101AC000182209A16846FEF747FB00F019F8C03557
:101AD000E8B200F053F86846005D00F04FF800F0FF
:101AE00032F807B030BD00003F065B4F666D7D07E2
:101AF0007F6FBF86DBCFE6EDFD87FFEF00000000C4
:101B000070B5012209259403ED0621462846FEF70B
:101B1000F5FF0122560331462846FEF7EFFF01206C
:101B2000FEF708FF002221462846FEF7E7FF0120C6
:101B3000FEF700FF002231462846FEF7DFFF0120B6
:101B4000FEF7F8FE70BD70B501240925A403ED066B
:101B5000002221462846FEF7D1FF012251032846E4
:101B6000FEF7CCFF0120FEF7E5FE012221462846C4
:101B7000FEF7C4FF0120FEF7DDFE70BDF8B50926B3
:101B800004460121F606002289033046FEF7B6FF1F
:101B90000121002249033046FEF7B0FF002501274E
:101BA0007F03002239463046FEF7A8FF0120FEF7EA
:101BB000C1FEE00701D0012200E0002201218903DB
:101BC0003046FEF79BFF0120FEF7B4FE01223946A6
:101BD0003046FEF793FF0120FEF7ACFE6D1C640853
:101BE000EDB2082DDDD30121002289033046FEF736
:101BF00085FF002239463046FEF780FFF8BD10B55C
:101C0000818CC90707D001684A6801235B049A43A5
:101C1000836A1A434A60818C890707D501684A683C
:101C200001231B049A43C36A1A434A60818C490703
:101C300007D501684A6801239B049A43036B1A4342
:101C40004A60818C090707D501684A680123DB03D4
:101C50009A43436B1A434A60818CC90607D50268D0
:101C6000916801231B039943836B19439160818C15
:101C7000890607D501688A6801235B039A43C36B11
:101C80001A438A60818C490612D503685A6801217B
:101C90000905046C8A4322435A60026C8A4207D1C8
:101CA0000268516803235B059943436C19435160F3
:101CB000818C090607D501684A680123DB04806C22
:101CC0009A4302434A6010BDF8B5044600268030AE
:101CD0000660FEF719FF054620680068124F0007EE
:101CE00009D501212B46002249052046009700F026
:101CF000F1F800280DD12068006840070BD50121BC
:101D00002B46002289052046009700F0E3F80028C2
:101D100001D00320F8BD2020A067E067266660346C
:101D200026750020F8BD0000FFFFFF0110B5406AD6
:101D30000022014640314A834A82FFF768FB10BD0A
:101D400010B5EFF31081012282F310880268136846
:101D5000FF242134A343136081F31088EFF3108133
:101D6000012282F31088026893685B085B0093602D
:101D700081F31088016E01290BD1EFF3108101224C
:101D800082F31088026813681024A343136081F360
:101D900010882021C16700210166416610BD000046
:101DA00070B5044680682169E269084361690025CD
:101DB0001143226808431168404B194001431160E8
:101DC00021684868032212039043E2681043486088
:101DD000A169206A084321688A680B231B029A4381
:101DE00002438A6036492068884210D13548006B2A
:101DF0008007800F0ED0012805D0022805D00328C7
:101E00000AD1022109E0042107E0082105E02E495A
:101E1000884201D1002100E010210120E369C003C4
:101E20002A4A2B4E834223D1002906D0022907D00B
:101E3000042907D0082937D108E0FEF7C1FF03E0E5
:101E4000104603E0FEF7CCFF002831D06168400067
:101E50004A088018FEF759FA80B201461039B1429B
:101E600022D81B49491C01400007400F08431DE0D0
:101E7000002906D0022907D0042907D0082913D148
:101E800008E0FEF79DFF03E0104603E0FEF7A8FF21
:101E900000280DD061684A081018FEF736FA80B2A3
:101EA00001461039B14201D9012501E02168C8601D
:101EB00000206066A066284670BD0000F369FFFF41
:101EC00000380140001002400044004000127A0037
:101ED000EFFF0000FFB581B00546174604466035A8
:101EE0000A9E55E0701C53D0FEF70EFE0499401A6E
:101EF000B04230D8002E2ED020680168490747D55F
:101F0000C069C043000543D401202168C0020862B3
:101F1000EFF31080012181F3108821680B68FF2204
:101F2000A13293430B6080F31088EFF310800121FE
:101F300081F3108821688A68520852008A6080F311
:101F400010882020A067E06780342060002028757A
:101F5000032005B0F0BDEFF31080012181F310885C
:101F600021680B68FF22A13293430B6080F3108835
:101F7000EFF31080012181F3108821688A685208EC
:101F800052008A6080F310882020A067E067DDE7B8
:101F90002068C1690298884304D00020B842A1D0CB
:101FA0000020D6E70120F9E710B50248FFF730FA24
:101FB00010BD0000A4000020F8B5040C8BB226462A
:101FC00082B25E430D0C1046370C5843360480191C
:101FD0000021794116466E43370C36048019794149
:101FE00026466E438919F8BD8307FF22DB0E9A400F
:101FF0008907090E9940002808DB830809489B00DF
:102000001B18186890430843186070470007000FBA
:102010000838830804489B001B18D869904308437C
:10202000D861704700E400E000ED00E0FFF728FD14
:10203000FEF778FDFFF79DFCFFF700FCFFF7AAFB1A
:10204000FFF774FCFFF758FC314C0020FFF798FBBA
:10205000E070002815D001280FD002280AD00328EC
:1020600004D0042810D12078401E01E02078401CC4
:10207000207009E0A078401E01E0A078401CA0700C
:1020800002E00A20FEF756FC0A21A078FEF73DF98F
:10209000064605252846FFF70FFD0A213046FEF7C4
:1020A00034F96D1EEDB20646022DF3D80A21607890
:1020B000FEF72BF9064608252846FFF7FDFC0A2106
:1020C0003046FEF722F96D1EEDB20646052DF3D817
:1020D0000A212078FEF719F906460B252846FFF756
:1020E000EBFC0A213046FEF710F96D1EEDB20646F4
:1020F000082DF3D860684000000EA6D1002500210D
:102100002846FFF7D9FC6D1CEDB2032DF7D39CE7F1
:102110000400002000000000000000000102030491
:102120000607080900000000010203044C21000812
:10213000000000201C000000F800000868210008D2
:102140001C0000206C0700001401000801000000C2
:10215000000000000000000001000000040000007A
:082160000000000000127A00EB
:04000005080000B53A
:00000001FF
