:020000040800F2
:100000008807002091010008092600084F230008F6
:1000100000000000000000000000000000000000E0
:100020000000000000000000000000000D26000895
:1000300000000000000000000B2600080F2600084A
:10004000A301000800000000A3010008A3010008AC
:10005000A3010008A3010008A3010008A3010008F0
:1000600000000000A3010008A3010008A30100088C
:10007000C90C0008A3010008A3010008000000004B
:10008000A30100088D26000800000000A30100085D
:10009000A3010008A3010008A3010008A3010008B0
:1000A000A3010008A3010008A30100085D2C0008BB
:1000B000A301000800F002F800F03EF80CA030C8E0
:1000C000083824182D18A246671EAB4654465D46D4
:1000D000AC4201D100F030F87E460F3E0FCCB64660
:1000E0000126334200D0FB1AA246AB4633431847E1
:1000F000082E0000282E0000103A02D378C878C1DC
:10010000FAD8520701D330C830C101D504680C6059
:10011000704700000023002400250026103A01D378
:1001200078C1FBD8520700D330C100D50B607047AF
:100130001FB51FBD10B510BD00F064FD1146FFF7DF
:10014000F7FF02F0EFFD00F07CFD03B4FFF7F2FFD4
:1001500003BC00F0B1FD000070B505460C46164624
:1001600002E00FCC0FC5103E102EFAD2082E02D39B
:1001700003CC03C5083E042E07D301CC01C5361FAE
:1001800003E021782970641C6D1C761EF9D270BDC5
:100190000748804707480047FEE7FEE7FEE7FEE71F
:1001A000FEE7FEE704480549054A064B7047000094
:1001B0008B260008B5000008880100208807002071
:1001C0008803002088030020FEB5054610460C4633
:1001D000184373D0AE468C460020AD1A01469C41B0
:1001E00067D36646002701243D46B61A9D4102D3D7
:1001F00013463A462124654676462F04360C3E4384
:100200002D0CB61A9D4104D3150C1B042B4312046C
:100210001034654676462F06360A3E432D0AB61A36
:100220009D4104D3150E1B022B4312020834654670
:1002300076462F0736093E432D09B61A9D4104D351
:10024000150F1B012B431201241D65467646AF078F
:10025000B6083E43AD08B61A9D4104D3950F9B00E6
:100260002B439200A41C65467646EF0776083E4372
:100270006D08B61A9D411AD392185B41641C16E0B2
:100280000018764665464941B71A9D410191009094
:1002900009D36046B11A98418E4684460098019968
:1002A0000025401C6941DD0752082A435B08641E93
:1002B000E6D57246634603B0F0BDFFE70020014675
:1002C000C046C0462A462346F5E701E004C0091FA0
:1002D0000429FBD28B0701D50280801CC90700D0FE
:1002E0000270704700290BD0C30702D00270401C77
:1002F000491E022904D3830702D50280801C891E6F
:10030000E3E70022EEE70022DFE7002203098B4249
:100310002CD3030A8B4211D300239C464EE00346A4
:100320000B433CD4002243088B4231D303098B4258
:100330001CD3030A8B4201D394463FE0C3098B428E
:1003400001D3CB01C01A524183098B4201D38B01E7
:10035000C01A524143098B4201D34B01C01A52418A
:1003600003098B4201D30B01C01A5241C3088B42CF
:1003700001D3CB00C01A524183088B4201D38B00BA
:10038000C01A524143088B4201D34B00C01A52415C
:10039000411A00D201465241104670475DE0CA0F33
:1003A00000D04942031000D34042534000229C46F3
:1003B00003098B422DD3030A8B4212D3FC228901FD
:1003C00012BA030A8B420CD3890192118B4208D3D3
:1003D000890192118B4204D389013AD0921100E035
:1003E0008909C3098B4201D3CB01C01A5241830949
:1003F0008B4201D38B01C01A524143098B4201D376
:100400004B01C01A524103098B4201D30B01C01AA0
:100410005241C3088B4201D3CB00C01A524183081A
:100420008B4201D38B00C01A5241D9D243088B4270
:1004300001D34B00C01A5241411A00D20146634613
:1004400052415B10104601D34042002B00D5494277
:10045000704763465B1000D3404201B50020C046A0
:10046000C04602BD7047704770470000F0B50C46AB
:10047000871A9C410D46861A9D4103D2C01BA1419B
:10048000D21963410D0D1F0DC94EEC1BAE435CD05C
:100490007F057F0D0026002F51D02D05AC46A943C6
:1004A000DD020123ED0A1B051D4320231B1B24D461
:1004B0001746E740381871412F46E740CC199D4058
:1004C0002818314661410C0D27D161449A4013D55B
:1004D0000023401C594152000ED140084000012227
:1004E0004B005205D34207D305204007C14201D536
:1004F000B04900E0B0493046F0BD6B00002A00D0A2
:1005000001229A181F23203C1B1B01D5002302E067
:10051000E540281871410C0DD7D001242405091994
:10052000C407CD0740084908E40F28436144002C64
:10053000D5D00024401C61419A40D0D1CDE76A0556
:10054000520DD9D1C90FC907D5E79C4D4E000028DF
:1005500001D0012400E0002434195F00002A01D0FA
:10056000012600E00026BE19954FAC420CD8AE42E1
:100570000AD8B44206D001256D05EC42BCD0104625
:100580001946F0BD9942FCD000203946F0BDF0B5C7
:100590001FB40C460F46811A9F412546861A9D417D
:1005A00006D20125ED076F40401ABC4152187B412D
:1005B000210D1E0D8D1BAC467D4D8D437ED07505E6
:1005C0006D0D7CD00D05AE46AC431B031B0B794D66
:1005D00052429D41202366469B1B14D31746F74089
:1005E000381800260090744160462F460741E419F0
:1005F00000989D402818664116D4714671189A409B
:1006000025D5012320E093182A466A415200002B89
:1006100000D0521C1E23203E9B1B002B61DD354168
:10062000EE1728186641E8D5001876415B1C9A4001
:1006300000D3401C4B05F3181524E34010D3002BC6
:1006400052D071467118D30FC01802D3491C05B09F
:10065000F0BD0123DB079A42F9D140084000F6E7DC
:1006600001225205B21801D1002853D00123CC0A2F
:10067000DB029943891E002A08D1020C03D0020C28
:100680000004103902E00246002020390023550BF7
:1006900005D112020823550B01D152010D23550C2F
:1006A00001D112011B1DD50C01D192009B1C150D0F
:1006B00001D152005B1C2025EE1A01E02CE022E063
:1006C0000546F54015439840CA1AE1076918130515
:1006D000C918002ABBDA032040070818C10FC90750
:1006E0000FE071466118B2E7F10740080843711046
:1006F00071444A000CD001235B059A42A7D2C90F6E
:10070000C9070020A3E74905490D26D1002001E0D3
:100710000028F4D100219AE7284D6600002801D076
:10072000012100E0002171185F00002A01D001269C
:1007300000E00026BE19224FA94210D8AE420ED8C2
:10074000B14208D001256D05E94206D01946A8023C
:10075000414010467BE79C4201D0214677E70020CC
:10076000394674E710B50C465C4005D50124E40712
:100770006340FFF70CFF10BDFFF778FE10BD30B4EB
:100780000C465C4004D50124E407634030BC6DE6B0
:1007900030BCFCE670B50124E40761400D465D40C5
:1007A00002D4FFF763FE70BD6340FFF7F0FE70BD3B
:1007B000FF0700000000F0FF0000F07F0000E0FFF6
:1007C0000000F87F30B50346CA02400D1043164DB5
:1007D000164C0A1502D02043002A06DBAA1A002A6A
:1007E00012DDD040FF2A0BDC30BD5205520D01D185
:1007F00040004008AA1A07D4D0404042FF2A01DD39
:10080000002030BD0028FCDD4A00002B01D0012073
:1008100000E00020101801225205D042F0D8C8177D
:10082000C043604030BD00001E0400000000008096
:100830001F22030C02D10F22000402D0030E03D0AA
:1008400004E00020014670470002083A030F01D17E
:100850000001121F830F01D18000921E002801DBCE
:100860004000521E120551184205C0124118104690
:100870007047C10FC90700D04042012292071143BF
:10088000D6E701218907D3E7F0B58B4C0F09254640
:1008900089B0BD437BD01D092646AE43FAD00E4633
:1008A0005E402740F60F3E43254071D0240121428F
:1008B000FBD0FF24AD19A4042D1B039501252D05A4
:1008C000DB02DB0AC9022B43C90A29431E010901C5
:1008D000040F130F050121431701880B8203914375
:1008E0002D098C46A90B1E438A039543B30B9A032B
:1008F00096433F09BA0B9403A74302962E467E43C4
:100900000497B6464E19D7190C46019654430597DD
:100910007E43371B7646BF1B3601B646BE0B3619E3
:1009200000967646BC043719009C01D3641C0094E1
:100930006400002F01D001263443029E049F7543BA
:1009400066467E430496760034196E00341900948E
:10095000029C019E1C196643751BAE4606946546B3
:100960004519059C05956C43594375460891691ACC
:100970000191049E01465143A41B0491611A009CFD
:100980000791E10605D061090122114302E072E0FE
:100990006EE06109089D00272C0A2D066918049D48
:1009A0007C412A0A2D066918019D6241AC0DAD02F9
:1009B0006D185441079A910D920255196141029A9E
:1009C000644658435443069B059A5A43121A131B14
:1009D0009A0E9B015B187A41010B0005C318514127
:1009E000220A200644195A419A4200D2491C012089
:1009F0004002814203D315230226F64302E014236A
:100A00000326F6432020C51AA9401746AF40DA4016
:100A10000A4320460399D840091473181905511840
:100A2000039A3843D2075140AC4009D00122944088
:100A300006D30022401C5141002C01D14008400047
:100A40001E4A934212D3012203989206904207DB7A
:100A50000520400709181A480143C012414004E02C
:100A6000032040070818C10FC907002009B0F0BDD6
:100A70000020F107FAE705180C464C4111486D4279
:100A8000A04115D394181A465A410E486442904129
:100A90000ED301204A004005824209D35A00824207
:100AA00006D35940C90F084AC90700201143DDE7A2
:100AB00000200649DAE700000000FF07FE070000FB
:100AC000FFFFFF7F0000E0FF0000F07F0000F87FE5
:100AD00070B505464800440D124B0020002C0AD08A
:100AE000634008D09A4206DA6642B24203DD12053C
:100AF0004019514170BD002C08D0002B09D0C90FFE
:100B0000C907002AF6DB084A114370BDC90FC9079F
:100B100070BD28460A03104302D00020034970BD6F
:100B2000284670BDFF0700000000F07F0000F87F3E
:100B3000F8B5224C4E00069DA6420AD8A64201D125
:100B4000002806D15E00A64203D8A6420AD1002A98
:100B500008D00D24240425422CD02946002000F082
:100B60002FF8F8BD0C461C430CD4994202D0EFF389
:100B70000080F8BD904202D0EFF30080F8BDEFF3A3
:100B80000080F8BD09242407E5008B4206D0EFF36E
:100B90000080A043591A06D2284304E0101A05D356
:100BA000EFF30080A04380F30088F8BDEFF30080EE
:100BB000A043F1E7009500F01BF8F8BD0000E0FF4E
:100BC000C80212D54803400F002804D0C803C04310
:100BD000012188407047EFF30080000100090321E4
:100BE0000907084380F30088704700207047000021
:100BF00010B500200249029A00F02BF810BD000049
:100C00000000F87F754600F053F8AE4605006946CF
:100C10005346C008C000854618B020B5FFF7C2FA99
:100C200060BC00274908B6460026C0C5C0C5C0C57F
:100C3000C0C5C0C5C0C5C0C5C0C5403D49008D4682
:100C4000704710B50446C046C0462046FFF77DFAFF
:100C500010BD10B50C461107090F092904D00A2947
:100C60000AD008290CD104E011460820FFF7A8FF9C
:100C700006E0510606D501E0510601D50120C00766
:100C8000214610BDD10607D501010909CC08490745
:100C9000000E0006044309E0410F20024907000A44
:100CA0000143200E00061D22D14101430846E7E71B
:100CB000004870472401002001491820ABBEFEE720
:100CC000260002007047000010B5024800F093F9BA
:100CD00010BD00001800002070B50446006881684F
:100CE000490724D5816810264907002905DA81685B
:100CF000890702D481683143816000F0ABFC05466E
:100D000011E000F0A7FC401B02280CD92068806885
:100D1000400708D5A06B3043A063E06B0121084376
:100D2000E063084670BD206880684007E9D4002071
:100D300070BDF8B50446006881688907890F0129EC
:100D40002CD10168C90702D1C168090426D5816880
:100D50000522114010250126012913D181680222A4
:100D60001143816021680320086000F073FC07468E
:100D700010E000F06FFCC01B02280BD920688068CF
:100D8000C00707D0A06B2843A063E06B3043E0634B
:100D90000120F8BD20688068C007EAD10020F8BDB6
:100DA000F8B5044600200090206881688907890F03
:100DB000012905D10168C90731D1C16809042ED4C0
:100DC0008168184A10261140012500291AD181682E
:100DD00029438160154814490068FFF796FA00E03E
:100DE000401E00900028FBD100F034FC074611E0C3
:100DF00000F030FCC01B02280CD920680068C043FA
:100E0000C00707D0A06B3043A063E06B2843E063CA
:100E10000120F8BD20680068C043C007E8D1002069
:100E2000F8BD00001700008040420F0014000020B1
:100E300072B6FEE7FEB5012006030090000702909F
:100E40000025019669461E4800F048F8002801D0A8
:100E5000FFF7EEFF1A4800F08DFA0A21184800F05B
:100E600025FA002806D1164800F0B2FA144800F01E
:100E7000BFF885B22846FFF704FD0F460446114A25
:100E8000114B01F0EFFF01D20020FEBDB54201D9A8
:100E90006420FEBD204639460C4A0D4BFFF7F4FC9A
:100EA00000220C4BFFF7F0FC0B22D243FFF710FEA1
:100EB0000022094BFFF763FCFFF784FC80B2FEBD04
:100EC0001800002065934D36D964834066666666D7
:100ED00066660A400000394000002940F8B5002548
:100EE000044620340095227D012A39D00122227542
:100EF00003689E68760767D4384F4E68BE424DD06F
:100F00009E6A0F78BA4016439E620123C26A1B078D
:100F10009A421FD0012A1DD0022A1BD0032A19D0C1
:100F2000042A17D0052A15D0062A13D0072A11D073
:100F300002688B6856697607760FB3420AD0536908
:100F4000DB08DB005361006842690B7A5B075B0FCB
:100F50001A4342610A68102A04D0112A02D038E0EC
:100F60000220F8BD1E488368102A07D0012292058E
:100F7000134383600868102803D02AE00122D205B9
:100F8000F6E7194817490068FFF7BFF90A214843F7
:100F900000E0401E00900028FBD11AE0986A0E780D
:100FA000B240904398620968102901D0112910D1EC
:100FB0000B488268102904D0012189058A43826088
:100FC00007E00121C905F9E7816B20221143816304
:100FD0000125002020752846F8BD00000110000002
:100FE0000027014040420F00140000207047704766
:100FF0000068006C704770B50446006801684907D6
:1010000002D54168490705D40168090730D5416810
:1010100009072DD5A16BC90604D4A16B0122520288
:101020001143A163C1680C250905890F00291AD154
:10103000A17E002917D10168090714D581684A07E4
:101040000121002A08DB4268AA434260A06B0A0221
:1010500090430843A06306E0A06B20221043A063E6
:10106000E06B0843E0632046FFF7C0FF206805609F
:101070002068016809060DD5406800060AD5A06BF6
:10108000012109040843A063204600F0D9F8216833
:101090008020086020680168C90613D54168C90628
:1010A00010D5A16A1025012902D0C168C90707D04F
:1010B000E16B02221143E16305602046FFF797FFD1
:1010C0002068056070BD0000F8B5002604460028C1
:1010D00005D0A06B25462035002802D007E001206E
:1010E000F8BD0020E0632875204600F0ABF8A06B47
:1010F0001022C006002870DB2068816849076CD484
:10110000A16B1301994302231943A16381688907E5
:10111000890F012905D10168C9070FD1C1680904E8
:101120000CD4C16818239943A3681943C16020688F
:101130000169636889008908194301612068C168F1
:101140003D4B1940C160207E617E8003C903084386
:10115000A17E4B031843A36A012B02D001231B037A
:1011600000E000231843E36818432369022B09D0E9
:10117000002318432B79E57E5B0018430123012DE2
:1011800002D00AE00423F4E7002927D0A16B202530
:101190002943A163E16B1943E163E1690D46FF3D1A
:1011A000C23D02D0256A294308432168CD68054322
:1011B000CD600125E16A2D07A94213D0012911D084
:1011C00002290FD003290DD004290BD0052909D0FD
:1011D000062907D0072905D010E028E001210904DD
:1011E0000843DAE721684D69ED08ED004D6121689B
:1011F0004D69A78D7F077F0F3D434D612168C96809
:101200000E4D2940814207D10020E063A06B800889
:101210008000401CA06308E0A06B022188431043BB
:10122000A063E06B1843E06301263046F8BDA06B75
:101230001043A063F8E700001902FEFFE7FF3F83B9
:101240007047000010B586B0044614216846FFF7C9
:101250005AF814492068884221D1134882694115FF
:101260000A43826182690A400592426909020A437F
:10127000426140690840059062200090032001907F
:101280000020029009206946C00600F005F90022FE
:1012900011460C2000F03EFA0C2000F02FFA06B0A8
:1012A00010BD00000024014000100240F8B50446C3
:1012B0004069254620350E4608280BD02068C068B6
:1012C000C00709D0A06B20210843A0630020287527
:1012D0000120F8BD082700E00C2700F0BBF90090C2
:1012E00015E0701C13D0002E05D000F0B3F9009962
:1012F000401AB0420BD920680068384207D1A06B71
:1013000004210843A063002028750320F8BD20684D
:1013100000683842E5D0A06B012149020843A06370
:101320002068C16809058A0F0C21002A1AD1A27E03
:10133000002A17D10268120714D5826853070122C8
:10134000002B08DB43688B434360A06B1302984378
:101350001043A06306E0A06B20231843A063E06B5A
:101360001043E063207E002801D120680160002046
:10137000F8BD000070B5044621680020896849075F
:1013800021D425462035297D01291CD0012129752C
:10139000617E012904D02046FFF702FD002811D10B
:1013A000A16B0A4A1140FF2201321143A1630021BF
:1013B000E163297522681C21116021688A68042371
:1013C0001A438A6070BD022070BD0000FEF1FFFF6D
:1013D00070B5054604462035287D012807D0012632
:1013E0002E752046FFF778FC002802D00CE0022082
:1013F00070BD2046FFF79DFC002805D1A16BFF22A0
:10140000013291433143A1630021297570BD30B58C
:10141000014620314B780022022B04D00423836341
:101420000A70012030BD03681C680E25AC431C60A7
:1014300003681C68640864001C600123056C1C467A
:10144000C06BAC4044604B700A70002030BD70B57A
:101450000024014620314A78022A03D00421816306
:10146000012416E0026813680E25AB43136002687E
:1014700013685B085B0013600122056C1346AB40E8
:10148000C56B6B604A7000220A70416B002900D066
:101490008847204670BD0000F8B5002303240125CD
:1014A000BAE02E469E40B44632407CD00E79B60754
:1014B000B60F012E01D0022E17D186682746B646F8
:1014C0005E00B74000967646BE43B646CF68009EA3
:1014D000B74076463743876046686746BE430F7914
:1014E000FF06FF0F9F40374347600E79F643B6076C
:1014F0000ED0C6682746B4465E00B646B74066467C
:10150000BE43B4468F687646B74066463743C760E9
:101510000E79B607B60F022E14D1DE08B6003618C3
:101520000096366A5F07B446FE0E0F27B646B740F0
:101530006646BE43B4460F697646B74066463743B3
:10154000009E376206682746B4465E00B646B7403E
:101550006646BE430F79B446BF07BF0F7646B74015
:101560006646374307604E68B603B60F53D02D4F1B
:10157000BE692E43BE61BE699F08F607F60F2A4E6C
:10158000BF00BE190096B6680F27B4469E07360FF7
:10159000B646B7406646BE430927FF06B446B84282
:1015A00002D1002710E036E0204FB84201D10127D8
:1015B0000AE01F4FB84201D1022705E01D4FB84293
:1015C00001D1032700E005277646B740664637433A
:1015D000009EB760184E36684F689643FF0300D5EB
:1015E0001643154F3E607E684F689643BF0300D593
:1015F0001643114F7E60BE684F689643FF0200D5C8
:1016000016430D4FBE60FE684F689643BF0200D57B
:101610001643094AD6605B1C0A681646DE4000D0B5
:101620003FE7F8BD00100240000001400004004800
:1016300000080048000C0048000401400069084010
:1016400000D001207047002A01D08161704781627B
:1016500070470000014880687047000008000020C3
:10166000024881680278891881607047080000206C
:1016700010B506480168102211430160002000F0F7
:1016800007F800F027F8002010BD000000200240FD
:1016900070B504460D4D7D202978C000FEF735FE5B
:1016A00001460B480068FEF730FE00F047FB0028BB
:1016B00009D1042C07D200222146401E00F02AF84E
:1016C00000206C6070BD012070BD0000080000208B
:1016D0001400002008B50848816901221143816186
:1016E000816911400091C26901040A43C261C06965
:1016F0000840009008BD000000100240002805DBF3
:10170000C106C90E012088400149086070470000E9
:1017100000E100E010B501F0D3FA10BDF8B50546C0
:101720000068354CC00352D5E0690026C00007D4DC
:10173000E16920040143E161E16901400126009172
:101740002E480168C90510D4016882151143016053
:10175000FFF780FF074604E0FFF77CFFC01B64280B
:1017600024D826480068C005F6D5206A03273F0222
:10177000384020D06968394081421CD0206A226AF2
:10178000B843012109040A432262226A8A43226281
:101790002062C0070FD0FFF75DFF009008E0FFF761
:1017A00059FF0099411A1648814201D90320F8BD1A
:1017B000206A8007F3D5206A6968B843084320622D
:1017C000002E04D0E169012000078143E1612878FF
:1017D000C00705D0206BA9688008800008432063FB
:1017E0002878800605D5206B10218843E9680843D6
:1017F00020630020F8BD000000100240007000408F
:1018000088130000F8B50F46060059D03A4D2868F5
:10181000C007C00FB84209D22868400840003843CA
:1018200028602868C007C00FB84249D13068334CDF
:1018300081070CD5400704D56068072109020843D9
:1018400060606068F0218843B16808436060307868
:10185000C00726D0706801280ED0216802280ED05B
:10186000890700292CDA61688908890001436160D1
:10187000FFF7F0FE00900DE021688903F1E7890190
:10188000EFE7FFF7E7FE0099411A1D48814201D9B1
:101890000320F8BD60680C21084071688900884207
:1018A000EFD12868C007C00FB8420BD9286840089C
:1018B0004000384328602868C007C00FB84201D0F4
:1018C0000120F8BD3078400706D56068072109027D
:1018D0008843F1680843606000F028F86168094AAD
:1018E0000906090F515CC840074908600020FFF74E
:1018F000CFFE0020F8BD0000002002400010024092
:1019000088130000DD2E000814000020044805495B
:1019100000684968044A4905490F515CC84070474E
:101920001400002000100240ED2E000810B515A391
:101930000FCB88B06C460FC416A30FCB0FC4194A47
:1019400051680C200B4603401748042B02D0082B8B
:1019500002D0164808B010BD8B021B0F6C46E45C29
:10196000D26A04AB1207120F9A5CC90305D5002393
:101970001946FEF729FC214601E020460C4901F0FA
:1019800087F9E7E702030405060708090A0B0C0DAF
:101990000E0F10100102030405060708090A0B0CBC
:1019A0000D0E0F1000100240001BB70000127A004D
:1019B00000093D00FEB5040070D02078DC4DC00762
:1019C0004AD068680007800F012807D068680007C0
:1019D000800F022809D16868C00306D528688003F3
:1019E0003AD560680028E7D036E06168012914D054
:1019F00001208004002901D0052914D02A68012182
:101A000009048A432A6029688143296060680028A4
:101A100016D0FFF71FFE06460EE0286801210904D4
:101A200008432860F2E7296801432960F5E7FFF7DA
:101A300011FE801B64286ED828688003F7D50BE060
:101A4000FFF708FE064604E0FFF704FE801B64284B
:101A5000F1D828688003F7D4207801268007002871
:101A60003CDA68680007800F07D068680007800FBD
:101A7000022809D16868C00306D42868800716D5F3
:101A8000E06801280AD112E0E0680028286816D032
:101A900030432860FFF7DEFD074605E043E1FFF72E
:101AA000D9FDC01B0228C6D828688007F7D528684A
:101AB000F82188432169C900084328600EE04008E6
:101AC00040002860FFF7C6FD074604E0FFF7C2FDAF
:101AD000C01B0228AFD828688007F7D420780007F9
:101AE00022D5E0690028686A0ED030436862FFF7AB
:101AF000B1FD074604E0FFF7ADFDC01B02289AD8F0
:101B0000686A8007F7D50FE0400840006862FFF779
:101B1000A1FD074605E09DE0FFF79CFDC01B0228E4
:101B200089D8686A8007F7D42078042740070028FE
:101B300060DA00200190E869C00008D4E969B806BD
:101B40000143E961E9690140012000910190794870
:101B50000168C90511D40168821511430160FFF7BE
:101B600079FD009005E0FFF775FD0099401A6428A3
:101B700070D870480068C005F5D5A06801280AD063
:101B8000002801D0052810D0286A400840002862AB
:101B9000286AB84301E0286A30432862A068002818
:101BA00012D0FFF757FD00900AE0286A38432862F8
:101BB000F1E7FFF74FFD0099411A5F48814249D88C
:101BC000286A8007F5D50DE0FFF744FD009006E098
:101BD000FFF740FD0099411A574881423AD8286AD8
:101BE0008007F5D40198002804D0E9690120000796
:101BF0008143E9612078C00635D5606901280CD0A1
:101C0000401D686B23D038436863686B4008400010
:101C10006863FFF71FFD064622E0686B3843686380
:101C2000686B30436863FFF715FD064604E0FFF775
:101C300011FD801B02285BD8686B8007F7D5686BA5
:101C4000F8218843A169C900084368630BE0B843E1
:101C50006863F4E74CE0FFF7FDFC801B022847D8DF
:101C6000686B8007F7D4206A00285ED0696809078E
:101C7000890F022942D0012636060228286805D09D
:101C8000B0432860FFF7E6FC044633E0B043286029
:101C9000FFF7E0FC074604E0FFF7DCFCC01B02286E
:101CA00026D828688001F7D4E86AE16A00090001B3
:101CB0000843E862616AA06A084369683D22120429
:101CC000914308436860286830432860FFF7C2FCEE
:101CD000044604E0FFF7BEFC001B022808D8286871
:101CE0008001F7D521E0FFF7B5FC001B022801D9E0
:101CF0000320FEBD28688001F5D416E00128F8D045
:101D00006868E96A01221204636A02409A420AD1B1
:101D10000907E26A090F914205D10F2189040840A1
:101D2000A16A884201D00120FEBD0020FEBD000056
:101D3000001002400070004088130000094910B5EF
:101D4000401E884201D9012010BD074C606103216B
:101D5000081F00F0B5FF0020A061072020610020CF
:101D600010BD0000FFFFFF0000E000E0704770477B
:101D700070B5040005D025462035687F002802D0C4
:101D800006E0012070BD00202877204600F014F8FE
:101D900002206877211D206800F080FC012040347B
:101DA000A071A877E87720706070A070E070207153
:101DB00060716877002070BD08B5006809498842E5
:101DC0000FD10948C26910210A43C261C0690022CB
:101DD0000840009011461120FFF79CFC1120FFF7EE
:101DE0008DFC08BD0010004000100240014620316B
:101DF0004A7F012A01D00120704702224A770268F7
:101E0000D36801210B43D3600068094A904205D092
:101E1000084A904202D0084A904204D18268520790
:101E2000520F062A02D002680A430260002070475F
:101E3000002C014000040040004001400168CA68D5
:101E400052085200CA6001680A6A084B1A4207D158
:101E50000A6A9B101A4203D10A68520852000A60AB
:101E6000012120304177002070470000111100004F
:101E7000704770B50446006801690025C9438907A9
:101E8000002915DBC168C943890711D4E91E016126
:101E900001202077206880698007204602D0FFF764
:101EA000E7FF04E000F096F8204600F094F825776C
:101EB00020680169C943490717D4C168C943490764
:101EC00013D40421C943016102202077206880696E
:101ED0008005800F204602D0FFF7CAFF04E000F023
:101EE00079F8204600F077F8257720680169C94322
:101EF000090716D4C168C943090712D40821C94388
:101F00000161042020772068C0698007204602D044
:101F1000FFF7AEFF04E000F05DF8204600F05BF84C
:101F2000257720680169C943C90617D4C168C94328
:101F3000C90613D41021C943016108202077206805
:101F4000C0698005800F204602D0FFF791FF04E0B2
:101F500000F040F8204600F03EF82577206801693F
:101F6000C943C90708D1C168C943C90704D1891E3B
:101F70000161204600F030F820680169C943090674
:101F800009D4C168C943090605D48021C943016148
:101F90002046FFF7EBFE20680169C943490609D4D2
:101FA000C168C943490605D44021C943016120469F
:101FB00000F013F820680169C943890609D4C16893
:101FC000C943890605D42021C94301612046FFF792
:101FD000CEFE70BD704770477047704770477047BE
:101FE000F8B502680446D069116896689C4B0546AE
:101FF0001D402023002D75D0F7079A4DFF0FBC46DA
:102000000D402F436DD02546C7078035002F06D0E1
:10201000CF0504D5012717622A683A432A60820750
:1020200008D5F20706D0276802223A622A680427F8
:102030003A432A60420708D5F20706D026680422F0
:1020400032622A68022632432A6002070AD50A460B
:102050001A406646324305D02668082232622E684E
:1020600016432E60020508D54A0106D501222668CE
:10207000D20232622A681A432A602A68002A39D0BA
:10208000800606D5880604D5616E002901D0204659
:102090008847286821688968490602D428210842AF
:1020A0002DD0204600F0A6FC21688868400622D585
:1020B000EFF31080012282F310888B684022934353
:1020C0008B6080F31088206F002814D0664941632C
:1020D000206FFFF7BCF900280CD0206F416B08E09F
:1020E00000E012E0850610D58D060ED5616E9DE0EC
:1020F00020468847F8BD2046FFF771FFF8BD20460F
:10210000FFF76DFF00202860F8BD256E012D7DD101
:10211000C5067BD5CD0679D5102616622268906853
:10212000254640064035002845DA216F086840689A
:102130000004000CE8D02F8B8742E5D968838869BA
:10214000202833D0EFF31080012181F3108811682B
:102150003701B943116080F31088EFF3108001213B
:1021600081F3108821688A68520852008A6080F3DF
:102170001088EFF31080012181F3108821688A68AC
:102180004027BA438A6080F31088E3670020206606
:10219000EFF31080012181F3108821680A68B243AF
:1021A0000A6080F31088206FFFF731F9288B698B64
:1021B000401A81B231E0288B698B401A81B2688B5A
:1021C0000028A1D000299FD0EFF31080012585F3CE
:1021D00010881568FF272137BD43156080F31088EC
:1021E000EFF31080012282F31088226895686D0851
:1021F0006D00956080F31088E367002020666066BC
:10220000EFF31080012282F3108800E009E02268D9
:102210001368B343136080F310882046FFF7DEFE97
:10222000F8BD050606D50D0604D5A16E002900D01F
:102230005EE7F8BD4006FCD54806FAD52046EFF328
:102240001081012484F3108814684025AC43146085
:1022500081F3108883670021816600F077F8F8BD6C
:102260000F08000020010004E129000810B5040057
:1022700003D0A06F002802D007E0012010BD00218C
:1022800074200155204600F027F82420A06720681C
:102290000168490849000160204600F0DBFB012885
:1022A000ECD0606A002802D0204600F001FB2068D4
:1022B00041680122D202914341602068816808226E
:1022C000914381602068016801221143016020462A
:1022D00000F054FB10BD000010B586B00446142178
:1022E0006846FEF710F817492068884227D116483B
:1022F0008269012189030A43826182690A40059249
:102300004269C9000A4342614069084005900320C0
:1023100040020090022001900020029003200390D0
:102320000120049009206946C006FFF7B5F8002295
:1023300011461B20FFF7EEF91B20FFF7DFF906B06F
:1023400010BD000000380140001002407047FEE759
:10235000F8B50126334DF703334C002801D02E7019
:1023600002E02878002818D009203946C006FFF777
:1023700065F9002819D008212046FFF75FF90028E9
:1023800013D010212046FFF759F900280DD0202145
:102390002046FFF753F9002807D009203946C00628
:1023A000FFF74CF9002827D039E00A2000F0AAFCFA
:1023B0000020287009203946C006FFF73FF90028A1
:1023C00012D008212046FFF739F900280ED010213D
:1023D0002046FFF733F900280AD020212046FFF7D6
:1023E0002DF9002806D01AE00120F8BD0220F8BD22
:1023F0000320F8BD0420F8BD08212046FFF71EF990
:1024000000280CD110212046FFF718F9002806D12A
:1024100020212046FFF712F9002800D12E7000205D
:10242000F8BD000000000020000400483EB5002177
:10243000224800910191204A0291026081600124AA
:10244000520504614260C160042242610176417616
:102450008176FF22C176C232C26102460162203219
:1024600011718462FEF730FE002801D0FEF7E0FC17
:1024700001200003019000040290009469460F4877
:10248000FEF72CFD002801D0FEF7D2FC05200090BD
:1024900069460A48FEF722FD002801D0FEF7C8FC75
:1024A0000620009069460548FEF718FD002801D077
:1024B000FEF7BEFC3EBD00000024014018000020D5
:1024C000F0B587B014216846FDF71DFF304842691A
:1024D000012189050A43426142690A400592426925
:1024E00049110A43426142690A4005924269490022
:1024F0000A434261406909270840FF06059000220F
:1025000018213846FFF79FF8002287212148FFF75E
:102510009AF80820012500240326009069460396B6
:10252000019502943846FEF7B7FF10200090029400
:102530006946019503943846FEF7AEFF07200090E8
:1025400002946946019503941248FEF7A5FF1248CC
:1025500000900194694602940E48FEF79DFFE8033F
:102560006A4631C269463846FEF796FF38206A4609
:1025700031C269460748FEF78FFF80200090694608
:102580000396019502940348FEF786FF07B0F0BD5D
:1025900000100240000400484070000010B50A48D6
:1025A000084901602F214160002181600749C16015
:1025B00080218161FFF7DCFB002801D0FEF738FCA9
:1025C00010BD0000001000405800002050C3000063
:1025D00010B50C480A4901604B21490241600021B5
:1025E0008160C16001618161C1610C22016242614F
:1025F0004162FFF73BFE002801D0FEF719FC10BD39
:1026000000380140A0000020FEE77047704710B579
:10261000FFF726F810BD70B594B030216846FDF77D
:1026200072FE00240E941394102009940225049045
:102630000D940F940520129401260095C0040C946B
:10264000109403960A90119408950B946846FFF72E
:10265000B1F9002801D072B6FEE707200C900E9465
:1026600001210D950F940CA8FFF7CCF8002801D09C
:1026700072B6FEE710A810961294FFF74FF80028E4
:1026800001D072B6FEE714B070BD704710B50248B5
:10269000FFF7EFFB10BD000058000020F0B5026806
:1026A0001A4B1B4C984201D0A04203D17025AA437B
:1026B0004D682A43174D184E184F98420AD0A04231
:1026C00008D0174CA04205D0A84203D0B04201D098
:1026D000B84205D11446032212029443CA68224329
:1026E0008024A2434C69224302608A68C2620A685D
:1026F0008262984205D0A84203D0B04201D0B842CD
:1027000001D10969016301214161F0BD002C014043
:1027100000040040004001400044014000480140E6
:102720000020004010B50924E406012210212046B3
:10273000FEF789FF012208212046FEF784FF00F002
:1027400042F8442000F079F800F05EF800F03BF821
:102750008C2000F072F800F057F810BD30B587B04B
:102760000C460546182209496846FDF7F5FC00F0BD
:102770002AF8C035E8B200F060F86846005D00F065
:102780005CF800F041F807B030BD0000C82E00082A
:1027900070B50C46054600F016F8C035E8B200F0FA
:1027A0004CF8002C05D0012C05D0022C09D00020BB
:1027B00002E0802000E0402000F03FF800F024F824
:1027C00070BD2020F8E710B50924E406012210218D
:1027D0002046FEF738FF012208212046FEF733FF8E
:1027E000012000F08FFA002210212046FEF72BFF77
:1027F000012000F087FA002208212046FEF723FF7F
:10280000012000F07FFA10BD10B50924E406002273
:1028100010212046FEF717FF012208212046FEF76F
:1028200012FF012000F06EFA012210212046FEF76F
:102830000AFF012000F066FA10BD70B509260446B3
:10284000F606002210213046FEF7FDFE0022082188
:102850003046FEF7F8FE0025002208213046FEF73C
:10286000F2FE012000F04EFAE00701D0012200E064
:10287000002210213046FEF7E6FE012000F042FA69
:10288000012208213046FEF7DEFE012000F03AFA70
:102890006D1C6408EDB2082DDED3002210213046F5
:1028A000FEF7D1FE002208213046FEF7CCFE70BDB7
:1028B00010B5818CC90707D001684A6801235B0401
:1028C0009A43836A1A434A60818C890707D5016855
:1028D0004A6801231B049A43C36A1A434A60818CE5
:1028E000490707D501684A6801239B049A43036B93
:1028F0001A434A60818C090707D501684A68012399
:10290000DB039A43436B1A434A60818CC90607D59F
:102910000268916801231B039943836B19439160FB
:10292000818C890607D501688A6801235B039A4375
:10293000C36B1A438A60818C490612D503685A68B2
:1029400001210905046C8A4322435A60026C8A42C1
:1029500007D10268516803235B059943436C19430F
:102960005160818C090607D501684A680123DB04A0
:10297000806C9A4302434A6010BD0000F8B50446DB
:10298000002680300660FEF765FE05462068006878
:10299000124F000709D501212B4600224905204688
:1029A000009700F0F1F800280DD12068006840077A
:1029B0000BD501212B46002289052046009700F007
:1029C000E3F8002801D00320F8BD2020A067E067CD
:1029D0002666603426750020F8BD0000FFFFFF0169
:1029E00010B5406A0022014640314A834A82FFF70F
:1029F000F6FA10BD10B5EFF31081012282F31088B2
:102A000002681368FF242134A343136081F3108804
:102A1000EFF31081012282F31088026893685B084B
:102A20005B00936081F31088016E01290BD1EFF3F5
:102A30001081012282F31088026813681024A343D6
:102A4000136081F310882021C1670021016641666F
:102A500010BD000070B5044680682169E269084332
:102A6000616900251143226808431168404B1940F1
:102A70000143116021684868032212039043E26811
:102A800010434860A169206A084321688A680B23C3
:102A90001B029A4302438A6036492068884210D15B
:102AA0003548006B8007800F0ED0012805D0022822
:102AB00005D003280AD1022109E0042107E00821FA
:102AC00005E02E49884201D1002100E010210120BB
:102AD000E369C0032A4A2B4E834223D1002906D042
:102AE000022907D0042907D0082937D108E0FEF7CA
:102AF0000DFF03E0104603E0FEF718FF002831D079
:102B0000616840004A088018FDF7FFFB80B201466B
:102B10001039B14222D81B49491C01400007400F1F
:102B200008431DE0002906D0022907D0042907D058
:102B3000082913D108E0FEF7E9FE03E0104603E0A0
:102B4000FEF7F4FE00280DD061684A081018FDF762
:102B5000DCFB80B201461039B14201D9012501E008
:102B60002168C86000206066A066284670BD00002D
:102B7000F369FFFF003801400010024000440040AC
:102B800000127A00EFFF0000FFB581B0054617463E
:102B9000044660350A9E55E0701C53D0FEF75AFD7E
:102BA0000499401AB04230D8002E2ED02068016817
:102BB000490747D5C069C043000543D401202168B7
:102BC000C0020862EFF31080012181F310882168B0
:102BD0000B68FF22A13293430B6080F31088EFF360
:102BE0001080012181F3108821688A685208520000
:102BF0008A6080F310882020A067E067803420601E
:102C000000202875032005B0F0BDEFF310800121EE
:102C100081F3108821680B68FF22A13293430B6077
:102C200080F31088EFF31080012181F31088216870
:102C30008A68520852008A6080F310882020A067BA
:102C4000E067DDE72068C1690298884304D000206E
:102C5000B842A1D00020D6E70120F9E710B5084816
:102C6000FFF7BEF907490878401E0006000E0870FD
:102C700005D105490220087004490120087010BDE3
:102C8000A000002002000020050000200600002017
:102C9000F8B5040C8BB2264682B25E430D0C10468A
:102CA000370C5843360480190021794116466E438B
:102CB000370C36048019794126466E438919F8BDD0
:102CC0008307FF22DB0E9A408907090E99400028EE
:102CD00008DB830809489B001B18186890430843C9
:102CE000186070470007000F0838830804489B00ED
:102CF0001B18D86990430843D861704700E400E08E
:102D000000ED00E0064B05E019460A46491E89B26F
:102D1000002AFAD10146401E80B20029F4D1704742
:102D2000DF2E0000FEF7A4FCFFF775FCFFF7C8FBE1
:102D3000FFF77CFBFFF74CFCFFF730FCFFF7F2FCE2
:102D4000454F464CFEF776F8A0700020FFF700FBD9
:102D5000A071002828D00021617101212171012872
:102D60001ED0022819D003280BD0042827D13A48B6
:102D7000FFF764F801203968C04308612078401EDD
:102D800005E001203968C04308612078401C2070AC
:102D900060703148FFF72AF809E0E078401E01E052
:102DA000E078401CE0700AE00A20FFF7ABFF607992
:102DB000002804D0012280212948FEF744FC217913
:102DC0000D20FFF7E5FC0A21A078FDF79EFA0646E4
:102DD0000225E8B2FFF7C2FC0A213046FDF795FA5A
:102DE00006466D1EF5D50A21E078FDF78EFA0646F7
:102DF0000525E8B2FFF7B2FC0A213046FDF785FA57
:102E00006D1E0646022DF4DC0A216078FDF77DFA7E
:102E100006460825E8B2FFF7A1FC0A213046FDF777
:102E200074FA6D1E0646052DF4DC0A212078FDF7A4
:102E30006CFA06460B25E8B2FFF790FC0A213046F3
:102E4000FDF763FA6D1E0646082DF4DC03210C2005
:102E5000FFF79EFC76E700005800002001000020EC
:102E60000004004870B501250C002D051C4310D44A
:102E7000EC4206D4AC420AD4994200D070BD9042D4
:102E800070BDE94217D4EB4215D4994270BD894216
:102E900070BDEC4206D5AC42F9D58B4200D070BD76
:102EA000824270BD6D004C00EC4204D25C00EC42EA
:102EB00001D28B4270BD034C30B4FDF739FE30BCFB
:102EC00070BD00BF19001604EB88B3B9D87A7BA88F
:102ED000FBFA0000000000000000000000000000FD
:102EE00000000000000102030406070809000000BA
:102EF0000001020304000000182F00080000002059
:102F000018000000F8000008302F0008180000200A
:102F1000700700001401000801000000000000001C
:102F200001000000040000000000000000127A0010
:04000005080000B53A
:00000001FF
