:020000040800F2
:1000000028050020C9000008AD1700083B150008AE
:1000100000000000000000000000000000000000E0
:10002000000000000000000000000000B117000800
:100030000000000000000000AF170008B317000820
:10004000DB00000800000000DB000008DB00000807
:10005000DB000008DB000008DB000008DB00000814
:1000600000000000DB000008DB000008DB000008E7
:1000700021020008DB000008DB000008000000008F
:10008000DB0000083118000800000000DB00000859
:10009000DB000008DB000008DB000008DB000008D4
:1000A000DB000008DB000008DB0000083D1E000844
:1000B000DB0000080348854600F0A0F80048004730
:1000C0001D1F0008280500200448804704480047F9
:1000D000FEE7FEE7FEE7FEE7FEE7FEE72F18000873
:1000E000B500000830B50B4601460020202201244F
:1000F00009E00D46D5409D4205D31D469540491B5C
:100100002546954040191546521E002DF1DC30BDA4
:10011000F0B51FB40646002082B005464024019188
:1001200000901BE0019922460F46304600F020F86F
:10013000049A059B801A994110D31046194622460D
:1001400000F04BF8361A8F4101972246012000211A
:10015000009F00F042F838184D4100902046641E80
:100160000028DFDC019B00982946324607B0F0BD2D
:1001700010B5202A04DB0846203AD040002110BDEB
:100180000B46D340D0402024A21A91400843194680
:1001900010BD03460B439B0703D009E008C9121F9B
:1001A00008C0042AFAD203E00B780370401C491CF3
:1001B000521EF9D27047D2B201E00270401C491EB3
:1001C000FBD270470022F6E710B513460A460446F4
:1001D0001946FFF7F0FF204610BD10B5202A04DBBA
:1001E0000146203A9140002010BD914020239C1AE6
:1001F0000346E3401943904010BD0000064C012522
:10020000064E05E0E36807CC2B430C3C98471034BE
:10021000B442F7D3FFF752FF8C200008AC2000084F
:1002200010B5024800F090F810BD00001800002042
:1002300072B6FEE7F8B50025044620340095227D0D
:10024000012A39D00122227503689E68760767D497
:10025000384F4E68BE424DD09E6A0F78BA40164362
:100260009E620123C26A1B079A421FD0012A1DD039
:10027000022A1BD0032A19D0042A17D0052A15D028
:10028000062A13D0072A11D002688B6856697607B0
:10029000760FB3420AD05369DB08DB005361006874
:1002A00042690B7A5B075B0F1A4342610A68102AA6
:1002B00004D0112A02D038E00220F8BD1E4883681D
:1002C000102A07D001229205134383600868102882
:1002D00003D02AE00122D205F6E719481749006841
:1002E000FFF700FF0A21484300E0401E009000286D
:1002F000FBD11AE0986A0E78B24090439862096880
:10030000102901D0112910D10B488268102904D07E
:10031000012189058A43826007E00121C905F9E7C7
:10032000816B20221143816301250020207528461E
:10033000F8BD0000011000000027014040420F00FE
:10034000140000207047704770B5044600680168CB
:10035000490702D54168490705D40168090730D526
:10036000416809072DD5A16BC90604D4A16B0122F0
:1003700052021143A163C1680C250905890F0029A8
:100380001AD1A17E002917D10168090714D5816807
:100390004A070121002A08DB4268AA434260A06B99
:1003A0000A0290430843A06306E0A06B202210439A
:1003B000A063E06B0843E0632046FFF7C3FF2068BB
:1003C00005602068016809060DD5406800060AD559
:1003D000A06B012109040843A063204600F0D8F86F
:1003E00021688020086020680168C90613D541682B
:1003F000C90610D5A16A1025012902D0C168C90714
:1004000007D0E16B02221143E16305602046FFF74C
:100410009AFF2068056070BDF8B5002604460028E4
:1004200005D0A06B25462035002802D007E001202A
:10043000F8BD0020E0632875204600F0ABF8A06B03
:100440001022C006002870DB2068816849076CD440
:10045000A16B1301994302231943A16381688907A2
:10046000890F012905D10168C9070FD1C1680904A5
:100470000CD4C16818239943A3681943C16020684C
:100480000169636889008908194301612068C168AE
:100490003D4B1940C160207E617E8003C903084343
:1004A000A17E4B031843A36A012B02D001231B0337
:1004B00000E000231843E36818432369022B09D0A6
:1004C000002318432B79E57E5B0018430123012D9F
:1004D00002D00AE00423F4E7002927D0A16B2025ED
:1004E0002943A163E16B1943E163E1690D46FF3DD7
:1004F000C23D02D0256A294308432168CD680543DF
:10050000CD600125E16A2D07A94213D0012911D040
:1005100002290FD003290DD004290BD0052909D0B9
:10052000062907D0072905D010E028E00121090499
:100530000843DAE721684D69ED08ED004D61216857
:100540004D69A78D7F077F0F3D434D612168C968C5
:100550000E4D2940814207D10020E063A06B800846
:100560008000401CA06308E0A06B02218843104378
:10057000A063E06B1843E06301263046F8BDA06B32
:100580001043A063F8E700001902FEFFE7FF3F8376
:100590007047000010B586B0044614216846FFF786
:1005A00011FE14492068884221D1134882694115FF
:1005B0000A43826182690A400592426909020A433C
:1005C000426140690840059002200090032001909C
:1005D0000020029009206946C00600F053F800226E
:1005E00011460C2000F08CF90C2000F07DF906B0CB
:1005F00010BD0000002401400010024030B501464B
:1006000020314B780022022B04D0042383630A702C
:10061000012030BD03681C680E25AC431C600368D4
:100620001C68640864001C600123056C1C46C06BD8
:10063000AC4044604B700A70002030BD70B500249F
:10064000014620314A78022A03D004218163012423
:1006500016E0026813680E25AB4313600268136846
:100660005B085B0013600122056C1346AB40C56B51
:100670006B604A7000220A70416B002900D08847E5
:10068000204670BDF8B5002303240125BAE02E46AC
:100690009E40B44632407CD00E79B607B60F012E8C
:1006A00001D0022E17D186682746B6465E00B740B5
:1006B00000967646BE43B646CF68009EB740764663
:1006C0003743876046686746BE430F79FF06FF0FD2
:1006D0009F40374347600E79F643B6070ED0C66891
:1006E0002746B4465E00B646B7406646BE43B446AB
:1006F0008F687646B74066463743C7600E79B607BF
:10070000B60F022E14D1DE08B60036180096366AEF
:100710005F07B446FE0E0F27B646B7406646BE4397
:10072000B4460F697646B74066463743009E376247
:1007300006682746B4465E00B646B7406646BE43E6
:100740000F79B446BF07BF0F7646B74066463743BA
:1007500007604E68B603B60F53D02D4FBE692E43C7
:10076000BE61BE699F08F607F60F2A4EBF00BE198C
:100770000096B6680F27B4469E07360FB646B740B8
:100780006646BE430927FF06B446B84202D1002799
:1007900010E036E0204FB84201D101270AE01F4F98
:1007A000B84201D1022705E01D4FB84201D103270D
:1007B00000E005277646B74066463743009EB7609F
:1007C000184E36684F689643FF0300D51643154F01
:1007D0003E607E684F689643BF0300D51643114FB5
:1007E0007E60BE684F689643FF0200D516430D4FEA
:1007F000BE60FE684F689643BF0200D51643094AA3
:10080000D6605B1C0A681646DE4000D03FE7F8BDA4
:1008100000100240000001400004004800080048A9
:10082000000C0048000401400069084000D001208D
:100830007047002A01D081617047816270470000D3
:100840000148806870470000080000200248816865
:1008500002788918816070470800002010B50648AA
:100860000168102211430160002000F007F800F039
:1008700027F8002010BD00000020024070B504469B
:100880000D4D7D202978C000FFF72CFC01460B4858
:100890000068FFF727FC00F047FB002809D1042C73
:1008A00007D200222146401E00F02AF800206C608A
:1008B00070BD012070BD0000080000201400002061
:1008C00008B508488169012211438161816911409D
:1008D0000091C26901040A43C261C06908400090E6
:1008E00008BD000000100240002805DBC106C90E4B
:1008F00001208840014908607047000000E100E0E5
:1009000010B501F0BBFA10BDF8B505460068354CCE
:10091000C00352D5E0690026C00007D4E169200475
:100920000143E161E1690140012600912E4801681F
:10093000C90510D40168821511430160FFF780FFDB
:10094000074604E0FFF77CFFC01B642824D8264834
:100950000068C005F6D5206A03273F02384020D042
:100960006968394081421CD0206A226AB84301215B
:1009700009040A432262226A8A4322622062C00773
:100980000FD0FFF75DFF009008E0FFF759FF0099D7
:10099000411A1648814201D90320F8BD206A800718
:1009A000F3D5206A6968B84308432062002E04D05A
:1009B000E169012000078143E1612878C00705D083
:1009C000206BA9688008800008432063287880068F
:1009D00005D5206B10218843E96808432063002077
:1009E000F8BD0000001002400070004088130000B5
:1009F000F8B50F46060059D03A4D2868C007C00F19
:100A0000B84209D228684008400038432860286866
:100A1000C007C00FB84249D13068334C81070CD5AC
:100A2000400704D5606807210902084360606068D8
:100A3000F0218843B168084360603078C00726D051
:100A4000706801280ED0216802280ED0890700297D
:100A50002CDA61688908890001436160FFF7F0FEC4
:100A600000900DE021688903F1E78901EFE7FFF7C6
:100A7000E7FE0099411A1D48814201D90320F8BDC3
:100A800060680C210840716889008842EFD12868AD
:100A9000C007C00FB8420BD928684008400038434F
:100AA00028602868C007C00FB84201D00120F8BDF7
:100AB0003078400706D56068072109028843F1684D
:100AC0000843606000F028F86168094A0906090FC8
:100AD000515CC840074908600020FFF7CFFE0020A6
:100AE000F8BD000000200240001002408813000002
:100AF0007120000814000020044805490068496876
:100B0000044A4905490F515CC84070471400002051
:100B1000001002408120000810B515A30FCB88B04B
:100B20006C460FC416A30FCB0FC4194A51680C2092
:100B30000B4603401748042B02D0082B02D016485E
:100B400008B010BD8B021B0F6C46E45CD26A04AB8C
:100B50001207120F9A5CC90305D500231946FFF747
:100B6000D7FA214601E020460C4901F06FF9E7E78A
:100B700002030405060708090A0B0C0D0E0F1010DE
:100B80000102030405060708090A0B0C0D0E0F10DD
:100B900000100240001BB70000127A0000093D005F
:100BA000FEB5040070D02078DC4DC0074AD06868DC
:100BB0000007800F012807D068680007800F02280F
:100BC00009D16868C00306D5286880033AD56068F3
:100BD0000028E7D036E06168012914D001208004A4
:100BE000002901D0052914D02A68012109048A436B
:100BF0002A602968814329606068002816D0FFF7C1
:100C00001FFE06460EE028680121090408432860FB
:100C1000F2E7296801432960F5E7FFF711FE801B21
:100C200064286ED828688003F7D50BE0FFF708FE2C
:100C3000064604E0FFF704FE801B6428F1D828680C
:100C40008003F7D420780126800700283CDA686802
:100C50000007800F07D068680007800F022809D1BD
:100C60006868C00306D42868800716D5E0680128A4
:100C70000AD112E0E0680028286816D030432860C6
:100C8000FFF7DEFD074605E043E1FFF7D9FDC01B96
:100C90000228C6D828688007F7D52868F821884335
:100CA0002169C900084328600EE040084000286020
:100CB000FFF7C6FD074604E0FFF7C2FDC01B022890
:100CC000AFD828688007F7D42078000722D5E069DC
:100CD0000028686A0ED030436862FFF7B1FD07460E
:100CE00004E0FFF7ADFDC01B02289AD8686A8007B0
:100CF000F7D50FE0400840006862FFF7A1FD074606
:100D000005E09DE0FFF79CFDC01B022889D8686ABA
:100D10008007F7D4207804274007002860DA0020F5
:100D20000190E869C00008D4E969B8060143E961A7
:100D3000E969014001200091019079480168C905E5
:100D400011D40168821511430160FFF779FD00900D
:100D500005E0FFF775FD0099401A642870D87048C7
:100D60000068C005F5D5A06801280AD0002801D088
:100D7000052810D0286A400840002862286AB84335
:100D800001E0286A30432862A068002812D0FFF7EB
:100D900057FD00900AE0286A38432862F1E7FFF720
:100DA0004FFD0099411A5F48814249D8286A80075F
:100DB000F5D50DE0FFF744FD009006E0FFF740FD9C
:100DC0000099411A574881423AD8286A8007F5D4D9
:100DD0000198002804D0E969012000078143E961F6
:100DE0002078C00635D5606901280CD0401D686B9D
:100DF00023D038436863686B400840006863FFF79E
:100E00001FFD064622E0686B38436863686B304319
:100E10006863FFF715FD064604E0FFF711FD801B30
:100E200002285BD8686B8007F7D5686BF821884388
:100E3000A169C900084368630BE0B8436863F4E73D
:100E40004CE0FFF7FDFC801B022847D8686B800749
:100E5000F7D4206A00285ED069680907890F022943
:100E600042D0012636060228286805D0B043286003
:100E7000FFF7E6FC044633E0B0432860FFF7E0FCF0
:100E8000074604E0FFF7DCFCC01B022826D82868D0
:100E90008001F7D4E86AE16A000900010843E862CA
:100EA000616AA06A084369683D22120491430843BD
:100EB0006860286830432860FFF7C2FC044604E0FD
:100EC000FFF7BEFC001B022808D828688001F7D570
:100ED00021E0FFF7B5FC001B022801D90320FEBD6D
:100EE00028688001F5D416E00128F8D06868E96A1E
:100EF00001221204636A02409A420AD10907E26A97
:100F0000090F914205D10F2189040840A16A884246
:100F100001D00120FEBD0020FEBD000000100240F7
:100F20000070004088130000094910B5401E884237
:100F300001D9012010BD074C60610321081F00F09A
:100F40009DFF0020A06107202061002010BD00004F
:100F5000FFFFFF0000E000E07047704770B504003D
:100F600005D025462035687F002802D006E0012004
:100F700070BD00202877204600F014F80220687722
:100F8000211D206800F070FC01204034A071A8777A
:100F9000E87720706070A070E070207160716877F1
:100FA000002070BD08B50068094988420FD1094882
:100FB000C26910210A43C261C06900220840009042
:100FC00011461120FFF79CFC1120FFF78DFC08BD96
:100FD0000010004000100240014620314A7F012AE3
:100FE00001D00120704702224A770268D3680121AC
:100FF0000B43D3600068094A904205D0084A9042EA
:1010000002D0084A904204D182685207520F062A41
:1010100002D002680A43026000207047002C0140A1
:1010200000040040004001400168CA6852085200B4
:10103000CA6001680A6A084B1A4207D10A6A9B1003
:101040001A4203D10A68520852000A600121203076
:10105000417700207047000011110000704770B503
:101060000446006801690025C9438907002915DB8A
:10107000C168C943890711D4E91E016101202077A5
:10108000206880698007204602D0FFF7E7FF04E070
:1010900000F096F8204600F094F825772068016962
:1010A000C943490717D4C168C943490713D4042168
:1010B000C943016102202077206880698005800F84
:1010C000204602D0FFF7CAFF04E000F079F820467E
:1010D00000F077F8257720680169C943090716D41D
:1010E000C168C943090712D40821C943016104201A
:1010F00020772068C0698007204602D0FFF7AEFF46
:1011000004E000F05DF8204600F05BF825772068E9
:101110000169C943C90617D4C168C943C90613D4B4
:101120001021C9430161082020772068C06980052B
:10113000800F204602D0FFF791FF04E000F040F856
:10114000204600F03EF8257720680169C943C907A9
:1011500008D1C168C943C90704D1891E016120466D
:1011600000F030F820680169C943090609D4C16854
:10117000C943090605D48021C94301612046FFF710
:10118000EBFE20680169C943490609D4C168C94317
:10119000490605D44021C9430161204600F013F8F7
:1011A00020680169C943890609D4C168C943890611
:1011B00005D42021C94301612046FFF7CEFE70BD52
:1011C000704770477047704770477047F8B50268BE
:1011D0000446D069116896689C4B05461D40202343
:1011E000002D75D0F7079A4DFF0FBC460D402F43D9
:1011F0006DD02546C7078035002F06D0CF0504D512
:10120000012717622A683A432A60820708D5F20745
:1012100006D0276802223A622A6804273A432A60E5
:10122000420708D5F20706D02668042232622A68EF
:10123000022632432A6002070AD50A461A40664649
:10124000324305D02668082232622E6816432E608B
:10125000020508D54A0106D501222668D20232626B
:101260002A681A432A602A68002A39D0800606D5DF
:10127000880604D5616E002901D020468847286879
:1012800021688968490602D4282108422DD02046C9
:1012900000F0A0FC21688868400622D5EFF310809A
:1012A000012282F310888B68402293438B6080F385
:1012B0001088206F002814D066494163206FFFF723
:1012C000BDF900280CD0206F416B08E000E012E06F
:1012D000850610D58D060ED5616E9DE020468847A7
:1012E000F8BD2046FFF771FFF8BD2046FFF76DFF00
:1012F00000202860F8BD256E012D7DD1C5067BD567
:10130000CD0679D5102616622268906825464006DB
:101310004035002845DA216F086840680004000C59
:10132000E8D02F8B8742E5D968838869202833D09D
:10133000EFF31080012181F3108811683701B94360
:10134000116080F31088EFF31080012181F3108881
:1013500021688A68520852008A6080F31088EFF38F
:101360001080012181F3108821688A684027BA43E0
:101370008A6080F31088E36700202066EFF3108016
:10138000012181F3108821680A68B2430A6080F362
:101390001088206FFFF732F9288B698B401A81B2D1
:1013A00031E0288B698B401A81B2688B0028A1D06C
:1013B00000299FD0EFF31080012585F31088156870
:1013C000FF272137BD43156080F31088EFF31080AD
:1013D000012282F31088226895686D086D0095607F
:1013E00080F31088E367002020666066EFF31080CA
:1013F000012282F3108800E009E022681368B343F9
:10140000136080F310882046FFF7DEFEF8BD050666
:1014100006D50D0604D5A16E002900D05EE7F8BD03
:101420004006FCD54806FAD52046EFF3108101248A
:1014300084F3108814684025AC43146081F310884D
:1014400083670021816600F077F8F8BD0F0800007F
:1014500020010004C11B000810B5040003D0A06FD8
:10146000002802D007E0012010BD002174200155A2
:10147000204600F027F82420A0672068016849086A
:1014800049000160204600F0D5FB0128ECD0606ADD
:10149000002802D0204600F0FBFA206841680122B3
:1014A000D2029143416020688168082291438160A3
:1014B00020680168012211430160204600F04EFBC4
:1014C00010BD000010B586B0044614216846FEF732
:1014D00079FE17492068884227D116488269012180
:1014E00089030A43826182690A4005924269C90000
:1014F0000A43426140690840059003204002009081
:10150000022001900020029003200390012004900B
:1015100009206946C006FFF7B5F8002211461B20D6
:10152000FFF7EEF91B20FFF7DFF906B010BD000052
:1015300000380140001002407047FEE7F8B501276F
:10154000304D00282F7000D02F702F4E20213046B4
:10155000FFF76AF92D4C002818D008213046FFF714
:1015600063F9002812D080212046FFF75DF900289A
:101570000CD040212046FFF757F9002806D0202143
:101580003046FFF751F9002826D038E0642000F0FB
:10159000A7FC0020287020213046FFF745F90028DD
:1015A00012D008213046FFF73FF900280ED08021E5
:1015B0002046FFF739F900280AD040212046FFF7DE
:1015C00033F9002806D01AE00120F8BD0220F8BD4A
:1015D0000320F8BD0420F8BD08213046FFF724F9A8
:1015E00000280CD180212046FFF71EF9002806D1E3
:1015F00040212046FFF718F9002800D12F70002065
:10160000F8BD00000000002000040048001400485D
:101610003EB50021184800910191164A02910260DE
:1016200081600124520504614260C160042242616C
:10163000017641768176FF22C176C232C2610246CE
:101640000162203211718462FEF7E6FE002801D0AB
:10165000FEF7EEFD012000030190000402900094CB
:1016600069460548FEF7E6FD002801D0FEF7E0FDDB
:101670003EBD00000024014018000020F0B587B0F6
:1016800014216846FEF79EFD28484269012189051C
:101690000A43426142690A400592426949110A437C
:1016A000426142690A400592426949000A43426127
:1016B00040691F4C08401F4F0590002221463846C4
:1016C000FFF7B7F80326F602092000223146C006CC
:1016D000FFF7AFF8009400240125019502946946B4
:1016E00038460394FEF7CEFF13486A4631C2694676
:1016F0003846FEF7C7FF812000026A4631C2092042
:101700006946C006FEF7BEFF092002946946C0067E
:10171000009601950394FEF7B5FFC0206A4631C2DA
:1017200069460648FEF7AEFF07B0F0BD0010024064
:101730001370000000040048E88F00000014004807
:1017400010B50A48084901602F21416000218160DD
:101750000749C16080218161FFF700FC002801D0AA
:10176000FEF766FD10BD000000100040580000208C
:1017700050C3000010B50C480A4901604B214902D2
:10178000416000218160C16001618161C1610C2201
:10179000016242614162FFF75FFE002801D0FEF75F
:1017A00047FD10BD00380140A0000020FEE7704753
:1017B000704710B5FFF74AF810BD70B594B03021EE
:1017C0006846FEF7FFFC00240E9413941020099441
:1017D000022504900D940F94052012940126009583
:1017E000C0040C94109403960A90119408950B94DD
:1017F0006846FFF7D5F9002801D072B6FEE707204A
:101800000C900E9401210D950F940CA8FFF7F0F8A1
:10181000002801D072B6FEE710A810961294FFF7C8
:1018200073F8002801D072B6FEE714B070BD70479F
:1018300010B50948FFF713FC08480178002904D0C7
:10184000491E0906090E017005D1054902200870DC
:1018500004490120087010BD58000020020000203B
:101860000500002006000020F0B502681A4B1B4C52
:10187000984201D0A04203D17025AA434D682A4363
:10188000174D184E184F98420AD0A04208D0174C56
:10189000A04205D0A84203D0B04201D0B84205D141
:1018A0001446032212029443CA6822438024A243AE
:1018B0004C69224302608A68C2620A688262984266
:1018C00005D0A84203D0B04201D0B84201D1096985
:1018D000016301214161F0BD002C01400004004082
:1018E0000040014000440140004801400020004009
:1018F00010B509240122E40611032046FEF799FFE2
:101900000122D1022046FEF794FF00F042F8442065
:1019100000F07DF800F060F800F03BF88C2000F05B
:1019200076F800F059F810BD30B587B00C46054682
:10193000182209496846FEF72CFC00F02AF8C03549
:10194000E8B200F064F86846005D00F060F800F06E
:1019500043F807B030BD00005C20000870B50C46AD
:10196000054600F016F8C035E8B200F050F8002C3B
:1019700005D0012C05D0022C09D0002002E08020E7
:1019800000E0402000F043F800F026F870BD202071
:10199000F8E770B5012209251403ED062146284613
:1019A000FEF747FF0122D60231462846FEF741FFE7
:1019B0000E2000F0A5FA002221462846FEF739FF46
:1019C0000E2000F09DFA002231462846FEF731FF36
:1019D0000E2000F095FA70BD70B50124092524038E
:1019E000ED06002221462846FEF723FF0122D10200
:1019F0002846FEF71EFF0E2000F082FA0122214643
:101A00002846FEF716FF0E2000F07AFA70BDF8B5F2
:101A1000092604460121F606002209033046FEF796
:101A200008FF01210022C9023046FEF702FF00250F
:101A30000127FF02002239463046FEF7FAFE0E204B
:101A400000F05EFAE00701D0012200E0002201214F
:101A500009033046FEF7EDFE0E2000F051FA012298
:101A600039463046FEF7E5FE0E2000F049FA6D1CBF
:101A70006408EDB2082DDDD30121002209033046B0
:101A8000FEF7D7FE002239463046FEF7D2FEF8BDFB
:101A900010B5818CC90707D001684A6801235B042F
:101AA0009A43836A1A434A60818C890707D5016883
:101AB0004A6801231B049A43C36A1A434A60818C13
:101AC000490707D501684A6801239B049A43036BC1
:101AD0001A434A60818C090707D501684A680123C7
:101AE000DB039A43436B1A434A60818CC90607D5CE
:101AF0000268916801231B039943836B194391602A
:101B0000818C890607D501688A6801235B039A43A3
:101B1000C36B1A438A60818C490612D503685A68E0
:101B200001210905046C8A4322435A60026C8A42EF
:101B300007D10268516803235B059943436C19433D
:101B40005160818C090607D501684A680123DB04CE
:101B5000806C9A4302434A6010BD0000F8B5044609
:101B6000002680300660FEF76BFE054620680068A0
:101B7000124F000709D501212B46002249052046B6
:101B8000009700F0F1F800280DD1206800684007A8
:101B90000BD501212B46002289052046009700F035
:101BA000E3F8002801D00320F8BD2020A067E067FB
:101BB0002666603426750020F8BD0000FFFFFF0197
:101BC00010B5406A0022014640314A834A82FFF73D
:101BD000FCFA10BD10B5EFF31081012282F31088DA
:101BE00002681368FF242134A343136081F3108833
:101BF000EFF31081012282F31088026893685B087A
:101C00005B00936081F31088016E01290BD1EFF323
:101C10001081012282F31088026813681024A34304
:101C2000136081F310882021C1670021016641669D
:101C300010BD000070B5044680682169E269084360
:101C4000616900251143226808431168404B19401F
:101C50000143116021684868032212039043E2683F
:101C600010434860A169206A084321688A680B23F1
:101C70001B029A4302438A6036492068884210D189
:101C80003548006B8007800F0ED0012805D0022850
:101C900005D003280AD1022109E0042107E0082128
:101CA00005E02E49884201D1002100E010210120E9
:101CB000E369C0032A4A2B4E834223D1002906D070
:101CC000022907D0042907D0082937D108E0FEF7F8
:101CD00013FF03E0104603E0FEF71EFF002831D09B
:101CE000616840004A088018FEF7FCF980B201469E
:101CF0001039B14222D81B49491C01400007400F4E
:101D000008431DE0002906D0022907D0042907D086
:101D1000082913D108E0FEF7EFFE03E0104603E0C8
:101D2000FEF7FAFE00280DD061684A081018FEF789
:101D3000D9F980B201461039B14201D9012501E03B
:101D40002168C86000206066A066284670BD00005B
:101D5000F369FFFF003801400010024000440040DA
:101D600000127A00EFFF0000FFB581B0054617466C
:101D7000044660350A9E55E0701C53D0FEF760FDA6
:101D80000499401AB04230D8002E2ED02068016845
:101D9000490747D5C069C043000543D401202168E5
:101DA000C0020862EFF31080012181F310882168DE
:101DB0000B68FF22A13293430B6080F31088EFF38E
:101DC0001080012181F3108821688A68520852002E
:101DD0008A6080F310882020A067E067803420604C
:101DE00000202875032005B0F0BDEFF3108001211D
:101DF00081F3108821680B68FF22A13293430B60A6
:101E000080F31088EFF31080012181F3108821689E
:101E10008A68520852008A6080F310882020A067E8
:101E2000E067DDE72068C1690298884304D000209C
:101E3000B842A1D00020D6E70120F9E710B502484A
:101E4000FFF7C4F910BD0000A0000020F8B5040C95
:101E50008BB2264682B25E430D0C1046370C5843B7
:101E6000360480190021794116466E43370C36043A
:101E70008019794126466E438919F8BD8307FF22F0
:101E8000DB0E9A408907090E9940002808DB830879
:101E900009489B001B181868904308431860704756
:101EA0000007000F0838830804489B001B18D869F6
:101EB00090430843D861704700E400E000ED00E083
:101EC00002E008C8121F08C1002AFAD17047704703
:101ED000002001E001C1121F002AFBD17047000061
:101EE000064B05E019460A46491E89B2002AFAD176
:101EF0000146401E80B20029F4D17047DF2E000059
:101F000005E00B210A46491E89B2002AFAD1014692
:101F1000401E80B20029F4D170470000FEF79EFCFD
:101F2000FFF74BFCFFF7AAFBFFF772FBFFF722FC62
:101F3000FFF706FCFFF7DCFC454F464C0020FFF79F
:101F4000FDFAA07100282CD00021617101212171BE
:101F5000012823D002281BD0032812D004282BD11B
:101F60003B48FFF761F801203968C04308612078D9
:101F7000002802D0401E207060703548FFF72CF812
:101F800012E001203968C04308612078401CF2E764
:101F9000E078002810D0401EE0700DE0E078401C92
:101FA000FAE70A20FFF79CFF6079002804D001229D
:101FB00010212948FEF73DFC21790D20FFF7CEFCCA
:101FC0000A21A078FEF78EF806460225E8B2FFF750
:101FD000ABFC0A213046FEF785F806466D1EF5D5A6
:101FE0000A21E078FEF77EF806460525E8B2FFF7FD
:101FF0009BFC0A213046FEF775F86D1E0646022D41
:10200000F4DC0A216078FEF76DF806460825E8B290
:10201000FFF78AFC0A213046FEF764F86D1E06467B
:10202000052DF4DC0A212078FEF75CF806460B2526
:10203000E8B2FFF779FC0A213046FEF753F86D1E2F
:102040000646082DF4DC03210C20FFF787FC75E71A
:10205000580000200100002000040048EB88B3BABB
:10206000D87A7BA8FBFA0000000000000000000006
:102070000000000000000000000102030406070841
:10208000090000000001020304000000AC20000869
:102090000000002018000000C01E0008C420000836
:1020A0001800002010050000D01E000800000000ED
:1020B000000000000100000004000000000000001B
:0420C00000127A0090
:04000005080000B53A
:00000001FF
